:020000040800F2
:1000000030040020CD000008710200086F020008D3
:1000100000000000000000000000000000000000E0
:10002000000000000000000000000000A104000823
:100030000000000000000000C5020008850500085F
:10004000FD00000800000000FD000008FD000008A1
:10005000FD00000875010008FD000008FD00000813
:1000600000000000FD000008FD000008FD00000881
:10007000FD000008FD000008FD0000080000000071
:10008000E90500080000000000000000FD00000875
:10009000FD000008FD000008FD000008FD0000084C
:1000A000FD000008FD000008FD00000835060008FE
:1000B000FD0000080448854600F04AF80048004763
:1000C000F5080008C046C046300400200C4880F304
:1000D00008880C480168090E0B4A914205D10B486B
:1000E0000B4901600B480C4901600C4880470C48E3
:1000F0000047FEE7FEE7FEE7FEE7FEE7FEE700005B
:1001000030040020040000001F000000181002400E
:100110000100000000000140000000008905000807
:10012000B500000830B50B4601460020202201240E
:1001300009E00D46D5409D4205D31D469540491B1B
:100140002546954040191546521E002DF1DC30BD64
:10015000064C0125064E05E0E36807CC2B430C3C1A
:1001600098471034B442F7D3FFF7A8FF18090008E6
:100170003809000810B5012000F020F800280FD041
:10018000094C206800280BD0084800F01BFB092010
:100190000121C00600F064F8002801D120688047E2
:1001A000012000F005F810BD140000201027000009
:1001B000014948617047000000040140034A0146BC
:1001C000526900200A4200D001207047000401401B
:1001D000F0B50022012423460D6893401D409D4246
:1001E0002AD10D79012D01D0022D12D18768550039
:1001F0000326AE40B74387604E79AE4085682E43F4
:10020000866085889D43858085888B7993401D43D2
:100210008580066855000323AB409E4306600E7937
:100220000768AE403E430660C6689E43C660CB7911
:10023000AB40C5682B43C360521C102ACBD3F0BD22
:100240004B07DB0E9A40C90810B589000818016AEF
:100250000F249C40A1430162016A1143016210BD59
:100260000246128A00200A4200D001207047FEE7B1
:100270007047000030B5837801210278002B15D03B
:1002800094080E4BA400E41823689207D50EFF22B1
:10029000AA40934342789207120EAA401A43226062
:1002A0000078C006C00E8140054804E0D006C00EAC
:1002B000814003488030016030BD000000E400E070
:1002C00000E100E070470000044A0029516901D0B4
:1002D000014300E08143516170470000001002407B
:1002E000044A0029916901D0014300E081439161F2
:1002F0007047000000100240F8B5564D044668688B
:1003000000210C22544E104005D0042803D00828A8
:1003100003D00C281AD026601AE0696868680322A6
:100320008902D2030F0F1040BF1C00280AD0E86AD0
:100330000107090F3046491CFFF7F4FE78430146D8
:10034000216005E0454839464143F9E744482060CB
:100350006868444F0006000F3B5C20680246DA40A4
:1003600062606B685B055B0FFB5CDA40A2602B6B25
:10037000DB0501D43C4B05E06B685B0401D45308FA
:1003800000E09308E3602B6B5F06384B03D4374FD4
:100390001237276100E023612F6BFF0601D46661ED
:1003A00000E060612F6BBF070ED02F6BBF07BF0F40
:1003B000012F0BD02F6BBF07BF0F022F08D02F6B61
:1003C000FF43BF0706D006E0A26104E0A06102E09F
:1003D000A36100E0A6612F6BBF03BF0F0FD02F6B8F
:1003E000BF03BF0F012F0CD02F6BBF03BF0F022F16
:1003F00009D02F6BBF03BF0F032F06D006E0E261C9
:1004000004E0E06102E0E36100E0E6612F6B3F039E
:10041000BF0F0FD02A6B1203920F012A0CD0286B4A
:100420000003800F022809D0286B0003800F0328E7
:1004300006D006E0226204E0206202E0236200E0CF
:100440002662286B000602D405486062F8BD61622E
:10045000F8BD00000010024000127A0000093D00C3
:10046000006CDC0220000020809FD500008000008E
:1004700010B5054A53687B24E403A34353605368D3
:1004800008430343536010BD00100240034A516803
:100490008908890001435160704700000010024044
:1004A000704700007CB500202E4C01900090216820
:1004B000012212041143216052000521090323681F
:1004C00013400093019B5B1C0193009B002B02D106
:1004D000019B8B42F3D1216801258B031121224A14
:1004E0002D06002B23DA0120009011606068606007
:1004F0006068606060687F21C903884360606068ED
:10050000D100084360602068284320602068800193
:10051000FCD5606880088000606060680221084344
:10052000606060680007800F0228FAD17CBD0090EF
:10053000116060686060606860600521C904002027
:10054000FFF796FF20682843206020688001FCD5D3
:100550000220FFF79BFF60680007800F0228FAD196
:100560007CBD00000010024000200240042204492B
:100570000428086902D09043086170471043FBE7E4
:1005800000E000E07047000010B514480168012247
:10059000114301604168124A114041600168114AEB
:1005A0001140016001680122920491430160416899
:1005B0003F22120491434160C16A09090901C162E5
:1005C000016BFF22543291430163416B490849009A
:1005D000416300218160FFF765FF10BD00100240FC
:1005E0000CB8FF08FFFFF6FE10B5084C01212046AD
:1005F00000F013F8002804D005480168002900D055
:1006000088470121204600F005F810BD0004004095
:1006100018000020C943018270470246138A002057
:1006200092890B400A40002B02D0002A00D0012002
:100630007047000010B50C4C0A49204600F024F821
:10064000002809D0204600F0A5F80849C0B2096882
:10065000002900D0884710BD4021204600F008F84E
:1006600010BD000005010500003801401C000020FD
:10067000016270470029016802D00122114301E0A4
:10068000490849000160704730B50A04130E012281
:10069000144600258C40012B0ED0022B0ED083680F
:1006A000090C2340C0698A401040002B02D000286A
:1006B00000D00125284630BD0368F1E74368EFE725
:1006C00010B50B041C0E01238B40022C02D0032C0E
:1006D00002D002E0001D00E008300168002A01D0CD
:1006E000194300E09943016010BD000030B5044695
:1006F00000688BB00D464008400020606068032110
:1007000009038843A9680143616020681C49EA68BD
:100710000840696811432A69024311432160A068B7
:1007200003210902884369690143A1606846FFF714
:10073000E3FD1448844201D106980AE0124884423D
:1007400001D1079805E01148844201D1089800E0E2
:10075000029821680904296800D54000FFF7E2FCEF
:100760002A6852088A4200D8401C2168090404D52E
:100770000107074A490F10400843A0810BB030BD64
:10078000F3E9FFFF0038014000440040004800400A
:10079000F0FF0000808CC005C00D7047C905C90D71
:1007A0000185704702E008C8121F08C1002AFAD16B
:1007B00070477047002001E001C1121F002AFBD1E1
:1007C0007047000038B504460E480D490068FFF731
:1007D000A9FC01460C486143416100218161026925
:1007E00001231A43026102690092D20702D0009AE3
:1007F000D203F8D50269520852000261816138BD06
:1008000000127A000000002000E000E010B5042093
:10081000C043FFF7ABFE10BDF0B5054687B0012021
:1008200040020090012669464E71022008710024A2
:10083000CC714102029169464E730873CC73314604
:100840000004FFF741FD0921CF0601223846FFF7DA
:10085000F7FC01220A213846FFF7F2FC69463846C8
:10086000FFF7B6FC02A93846FFF7B2FC0C200121C5
:100870000095049001940394029405948803FFF773
:100880002FFD0E4D69462846FFF730FF012128460F
:10089000FFF7F0FE1B20694608704C708E70012235
:1008A00007492846FFF70CFF012206492846FFF7B3
:1008B00007FF6846FFF7DEFC07B0F0BD00380140D7
:1008C00005010500060106000149086070470000A7
:1008D0001C000020F8B50D4606460024044F04E035
:1008E000315D3846FFF75AFF641CAC42F8D3F8BDBF
:1008F00000380140FFF78AFFE1204002FFF78CFF3C
:100900000148FFF7E1FFFEE70D09000801B50121ED
:100910006846FFF7DFFF08BD380900080000002027
:1009200030000000A407000868090008300000201B
:1009300000040000B4070008006CDC0200000000A6
:10094000000000000102030406070809000000007F
:10095000000000000000000000000000010203048D
:08096000010203040607080967
:04000005080000B53A
:00000001FF
