:020000040800F2
:1000000018040020CD000008FD010008FB010008D5
:1000100000000000000000000000000000000000E0
:10002000000000000000000000000000490200087D
:100030000000000000000000FF0100082D03000880
:10004000FD00000800000000FD000008FD000008A1
:10005000FD000008FD000008FD000008FD0000088C
:1000600000000000FD000008FD000008FD00000881
:10007000FD000008FD000008FD0000080000000071
:10008000FD0000080000000000000000FD00000866
:10009000FD000008FD000008FD000008FD0000084C
:1000A000FD000008FD000008FD000008FD0000083C
:1000B000FD0000080448854600F04AF80048004763
:1000C00055040008C046C046180400200C4880F3C0
:1000D00008880C480168090E0B4A914205D10B486B
:1000E0000B4901600B480C4901600C4880470C48E3
:1000F0000047FEE7FEE7FEE7FEE7FEE7FEE700005B
:1001000018040020040000001F0000001810024026
:100110000100000000000140000000003103000861
:10012000B500000830B50B4601460020202201240E
:1001300009E00D46D5409D4205D31D469540491B1B
:100140002546954040191546521E002DF1DC30BD64
:10015000064C0125064E05E0E36807CC2B430C3C1A
:1001600098471034B442F7D3FFF7A8FF7004000893
:1001700090040008F0B50022012423460D68934046
:100180001D409D422AD10D79012D01D0022D12D1A1
:10019000876855000326AE40B74387604E79AE406E
:1001A00085682E43866085889D43858085888B7908
:1001B00093401D438580066855000323AB409E4352
:1001C00006600E790768AE403E430660C6689E43EF
:1001D000C660CB79AB40C5682B43C360521C102A64
:1001E000CBD3F0BD0246128A00200A4200D0012083
:1001F00070470185704781617047FEE7704770471F
:10020000044A0029516901D0014300E08143516152
:10021000704700000010024010B5054A53687B2467
:10022000E403A3435360536808430343536010BD82
:1002300000100240034A5168890889000143516057
:100240007047000000100240704700007CB500209D
:100250002E4C01900090216801221204114321606C
:10026000520005210903236813400093019B5B1C86
:100270000193009B002B02D1019B8B42F3D121689B
:1002800001258B031121224A2D06002B23DA0120A0
:1002900000901160606860606068606060687F21E5
:1002A000C903884360606068D100084360602068CB
:1002B0002843206020688001FCD5606880088000A9
:1002C0006060606802210843606060680007800F1A
:1002D0000228FAD17CBD009011606068606060689F
:1002E00060600521C9040020FFF796FF20682843BD
:1002F000206020688001FCD50220FFF79BFF60682A
:100300000007800F0228FAD17CBD000000100240D7
:1003100000200240042204490428086902D09043C6
:10032000086170471043FBE700E000E07047000001
:1003300010B5144801680122114301604168124A56
:10034000114041600168114A1140016001680122B9
:1003500092049143016041683F221204914341603D
:10036000C16A09090901C162016BFF22543291433C
:100370000163416B49084900416300218160FFF737
:1003800065FF10BD001002400CB8FF08FFFFF6FE2D
:1003900002E008C8121F08C1002AFAD1704770474E
:1003A000002001E001C1121F002AFBD170470000AC
:1003B0001CB50121684601710021417102200090A5
:1003C00001214004FFF71CFF69460248FFF7D2FEF7
:1003D0001CBD00000004004810B5084C0221204656
:1003E000FFF700FF002804D002212046FFF701FF9D
:1003F00010BD02212046FFF7FEFE10BD000400489C
:1004000038B504460E480D490068FFF78BFE0146DB
:100410000C486143416100218161026901231A4353
:10042000026102690092D20702D0009AD203F8D585
:100430000269520852000261816138BD00127A00DF
:100440000000002000E000E010B50420C043FFF7EA
:1004500061FF10BDFFF7F8FFFFF7AAFF034CFFF79E
:10046000BBFF2046FFF7CCFFF9E7000040420F003A
:100470009004000800000020140000009003000811
:10048000A40400081400002004040000A0030008D5
:10049000006CDC0200000000000000000102030408
:0404A000060708093A
:04000005080000B53A
:00000001FF
