:020000040800F2
:1000000040050020C9000008170E0008ED0C00088C
:1000100000000000000000000000000000000000E0
:100020000000000000000000000000005112000865
:100030000000000000000000690E000871130008B5
:10004000F900000800000000F9000008F9000008AD
:10005000F9000008890B0008F9000008F900000801
:1000600000000000F9000008F9000008F90000088D
:10007000F9000008F9000008F9000008000000007D
:10008000D11300080000000000000000F900000883
:10009000F9000008F9000008F9000008F90000085C
:1000A000F9000008F9000008F90000081914000818
:1000B000F90000080348854600F010FB004800479F
:1000C000091B0008400500200C4880F308880C48F4
:1000D0000168090E0B4A914205D10B480B4901609A
:1000E0000B480C4901600C4880470C480047FEE76C
:1000F000FEE7FEE7FEE7FEE7FEE700004005002022
:10010000040000001F000000181002400100000061
:10011000000001400000000075130008B500000851
:1001200003460B439B0703D009E008C9121F08C010
:10013000042AFAD203E00B780370401C491C521EBB
:10014000F9D27047D2B201E00270401C491EFBD2C6
:1001500070470022F6E710B513460A4604461946D2
:10016000FFF7F0FF204610BD421C0178401C00291B
:10017000FBD1801A704770B502464A40D50F400047
:100180004A00ED0740085208002814D0002A12D077
:10019000C40DD30D41020120C0055202490A520A82
:1001A000E41A091812187D34914201D3641C00E04E
:1001B0004900002C01DA002070BD0023914201D3D8
:1001C000891A0343400849000028F7D100290AD0C2
:1001D000914202D10121C90705E0914201D20121DA
:1001E00001E00121C943E005C018401900F06FF893
:1001F00070BDC217C10F504010B54018CA079623F2
:10020000002100F06CF810BDC20FD207400040087A
:100210000BD0C10D0723DB01C91840020905400AB4
:100220001143C20840071143704700200146704740
:1002300070B50446002903D000202022012310E0DD
:10024000002801D00020C043C046C0460DE025462E
:10025000D5408D4205D30D469540641B1D46954003
:1002600040191546521E002DF1DC214670BDF0B537
:100270001FB40646002082B005464024019100903C
:100280001BE0019922460F46304600F049FA049AD5
:10029000059B801A994110D310461946224600F05A
:1002A0002FFA361A8F410197224601200021009F24
:1002B00000F026FA38184D4100902046641E0028B0
:1002C000DFDC019B00982946324607B0F0BD0029CB
:1002D00004DA401C490001D140084000704770B466
:1002E0000024050C05D11024000402D1002921D0DE
:1002F0001124050E01D100020834050F01D10001BF
:10030000241D850F01D18000A41C002801DB4000C2
:10031000641C002908D020252E1B0D46F540A14065
:1003200000D001212943084301061B1B000ADB1DE5
:1003300002D5002070BC7047DB0518188018002912
:10034000F8DA401C4900F5D170BC40084000704705
:10035000F0B507460846584087B0C00F04904800E3
:100360000E46590040084908BC1A884105D2384653
:1003700031461E4617460B460246580040081043B9
:100380004CD0300D039040055900400D490D0590AB
:10039000401A0290402872DA18030121000B090567
:1003A0000843019004980092002805D00199524218
:1003B0000020884100920190029840210A1A019978
:1003C000009800F09DF905460C466B4607CB00F0FF
:1003D000B8F9C0197141039A0E0D0023D717564082
:1003E0001A467A40164344D0049A002A2DD0029A25
:1003F000012A039A15DC1205C01A9141012636051F
:10040000001C7141D20F059ED20700930192029603
:100410002A46234600F0B5F907B0F0BD384631460C
:10042000FAE71605224A0F46B218C01AB741012151
:100430000905001C4F4100187F41114618187941E9
:10044000E20F10436D19644113E0E2076D08154394
:100450006408C2071443039A01261205C01A914189
:100460003605001C7141CE07400830434908C018CA
:1004700051412A46234600F077F9CDE7FFE704987B
:1004800001224000C117121A00238B410498314603
:10049000C417381AA141EEE730B40124E4076340E1
:1004A00030BC55E730B40124E407614030BC4FE76D
:1004B0000000E0FFF0B51FB488B00B990998002444
:1004C00048400999C00F490049080991C0070B9994
:1004D0000090490049080B9109990898A6460843DD
:1004E0001CD00B990A98084318D0099801244000A1
:1004F000420D4800410D099824050003000B2043DC
:1005000009900B980003000B20430B9050181C49D6
:100510004018002201901446104605E000200146D4
:100520000DB0F0BD032801DA034600E003239C462A
:10053000C11A0AAE0AE05F0008ADED5B4F00F75B41
:100540007D430027AA187C41491C5B1E6145F2DDF2
:10055000410004AB5A522104120C0A43240C401CE3
:100560000828DFDB01980290009970460191009005
:10057000059B049A0799069800F003F9D0E700005C
:100580000DFCFFFFF0B50C465C4085B0E40FE407BE
:1005900003944C000026640859009446490802461A
:1005A0000296224321D062460A431ED06200570DB4
:1005B0004A000E032303550D012402462C4924054D
:1005C000781B1B0B360B40182343264361460090D3
:1005D0001C46501AB44103D30098401C009002E01E
:1005E000921800985B41002803DA0020014605B00C
:1005F000F0BD0020012109050746864611E064464A
:100600001D46141BB54106D36546521BB3417446C3
:1006100007430C43A646CD074008490828439218D3
:100620005B4105460D43EAD11046184313D060469E
:10063000194650407140084306D06046101AB34135
:1006400006D20122002306E000220123DB0702E09C
:100650000122D2435310009874460105381C6141B1
:10066000029C039D0019694100F07EF8BFE700007D
:10067000FD0300004A0009030123090B1B05194370
:100680000A4B10B5520D9A4202DA0020014610BD05
:10069000064B34339A4203DC9A1A00F041F810BD3D
:1006A000034BD21800F02CF810BD0000FF0300002F
:1006B000CDFBFFFF10B5002904DB0124E407404215
:1006C0008C412146002B04DB1C460123DB075242F0
:1006D000A341994200D1904210BD0000064C012573
:1006E000064E05E0E36807CC2B430C3C98471034DA
:1006F000B442F7D3FFF7E2FCC82E0008E82E00084A
:1007000010B5202A04DB0146203A9140002010BD9C
:10071000914020239C1A0346E3401943904010BDAA
:1007200010B5202A04DB0846203AD040002110BD35
:100730000B46D340D0402024A21A914008431946CA
:1007400010BD10B5202A06DBCB170846203A104111
:10075000C1170B4306E00B461341D0402024A21AD8
:1007600091400843194610BD10B5002B08DA00244B
:10077000401C614192185B411A4301D1400840007E
:1007800010BDF0B51FB482B005460C0003D008467A
:1007900001F0FCFB02E001F0F9FB20300246009082
:1007A00021462846FFF7ACFF049B059A04460F46F6
:1007B00018431143084314D0184610431BD0009827
:1007C00040210A1A18460599FFF7AAFF05460E466A
:1007D000009A05990498FFF793FF084305D001207C
:1007E00004E02046394607B0F0BD0020C11705439C
:1007F0000E432C43374300990E986305401A790540
:10080000E40A00220C43FD0A0A3002D5002001460A
:10081000E9E70105101969410C9C0D9D001969411A
:10082000FFF7A2FFDFE70000B0B584B00446174829
:1008300006C8006806C4206002A8083C00F090F8D2
:100840000298002804D10399002901D100212170C8
:100850007D21CA004243100D0190080103994143D4
:10086000080D0B49401800900098FFF7C2FC094D95
:100870002946FFF780FC60600198FFF7BAFC294623
:10088000FFF779FCA06004B0B0BDC0469028000816
:100890000CFEFFFF0000204170B500F03FFA00F0B1
:1008A00026FA7025284600F017F900F0DDFBA82095
:1008B00000F012F900F0D8FB0024204600F00CF9FB
:1008C00000F0D2FB204600F007F900F0CDFB00F06D
:1008D0002FFD0A26304600F042F900F008FA2846BB
:1008E00000F0FAF800F0C0FBBE2000F0F5F800F0D0
:1008F000BBFB082000F0F0F800F0B6FB204600F04B
:10090000EBF800F0B1FB00F013FD304600F027F9E2
:1009100070BDB0B500F0D6FB00F0DCFB082001F0A4
:1009200041F800252C4600F0C5FB00F028F909200D
:10093000C0060121490300F0CBF9411E8841610046
:100940000C1800F0BFFB00F01AF9681C072D0546D3
:10095000E9D300F0BFFB082001F024F8E0B2B0BDFD
:1009600070B58AB0044609A80026067008A806706B
:1009700007A8067006A8067005A8067004A80670E9
:1009800003A8067001A88680019600F080F8502028
:1009900000F0E5F8344D00F069F840B2002806D5C3
:1009A000284600F0FFFF701C642E0646F3D300F0CB
:1009B0009EF9712000F090F800F056FBFFF7A9FFB8
:1009C00009A9087001AD287000F056FCFFF7A1FFDF
:1009D00008A90870687000F04FFCFFF79AFF07A99C
:1009E0000870A87000F048FCFFF793FF06A9087094
:1009F000E87000F041FCFFF78CFF05A90870287132
:100A000000F03AFCFFF785FF04A90870687100F058
:100A100033FCFFF77EFF03AE307000F049FC00F0BE
:100A200087FC0621284600F07CF83178884216D1F0
:100A300008A80078000407A909780902081806A97F
:100A40000978401800092060069805A9097809026C
:100A50000007000B401804A90978401801E00020A5
:100A6000206060600AB070BDE405000010B500F0C1
:100A70003EF9712000F030F800F0F6FAFFF749FF78
:100A8000044600F015FC00F053FC204610BD80B574
:100A900000F02DF9702000F01FF800F0E5FAAC200E
:100AA00000F01AF800F0E0FA332000F015F800F03A
:100AB000DBFA002000F010F800F0D6FA00F038FC65
:100AC00080BD80B51B2000F050F91C2000F04DF9CE
:100AD0001E2000F04AF980BDB0B5044600250AE0AA
:100AE00000F021FB00F0E6FA00F044F8681C640016
:100AF000072D054609D200F0E5FA00F03BF860B298
:100B00000028EDD500F0F9FAECE700F0DBFA082454
:100B1000204600F047FF00F0DDFA204600F042FFDB
:100B2000B0BDB0B5002917D0FF24002203E0521C4D
:100B30008A421C460ED0835C6340082403E02B46A7
:100B4000641E2506F3D05D005BB2002BF7DA31237B
:100B50005D40F4E7D8B2B0BDFF23D8B2B0BD10B548
:100B6000002806D004467D20C00000F01BFF641E54
:100B7000F9D110BD80B5042000F014FF80BD80B510
:100B8000052000F00FFF80BD10B5012000F01EF819
:100B900000280FD0094C206800280BD0084800F02E
:100BA00001FF0920C006012100F092F8012801D1BF
:100BB00020688047012000F005F810BD08000020E3
:100BC00010270000054908607047C04603490968BE
:100BD0000140481E814108467047C0461404014048
:100BE00010B582791549002A1CD002680B6893431E
:100BF0000B604B6893434B6003790B431C681443B1
:100C00001C6002688B6893438B60CB689343CB6016
:100C1000407910280DD1886810438860C868104357
:100C2000C86010BD02790A430068116881431160F1
:100C300010BD084301681143016010BD000401406C
:100C4000F0B50A6800231C4614E003269E4007689E
:100C5000B74307609D4007682F430760C568B543E9
:100C6000C560CD799D40C6682E43C6609B1C641C40
:100C7000102C1CD01546E540ED07F7D00D796E1EFF
:100C8000012EE2D803269E408768B74387604E79DD
:100C90009E408768374387600126A6408788B74310
:100CA00087808E79A640878837438780CDE7F0BD5F
:100CB00010B54B07DB0E0F249C40C9088900401873
:100CC000016AA14301629A40016A1143016210BDA9
:100CD000008A0840411E88417047808A0840411EB2
:100CE000884170470185704781617047FEE710B504
:100CF00000F003FA0824204600F054FE00F0DAF970
:100D0000204600F04FFE00F00EFA204600F04AFEAA
:100D100000F0D8F9204600F045FE10BD70B582B055
:100D20006D460121A9808C030094480400F09EF8D0
:100D30000920C60630462946FFF782FF3046214685
:100D4000FFF7D2FF00F0D9F97D208000FFF707FF01
:100D5000FFF78CFE18210140182904D0FFF7B1FEDF
:100D60000A20FFF7FCFE02B070BDF0B581B004466A
:100D7000FFF7BDFF70252846FFF7AEFE00F074F9BF
:100D80002046FFF7A9FE00F06FF900263046FFF776
:100D9000A3FE00F069F93046FFF79EFE00F064F90B
:100DA00000F0C6FA0520FFF7DAFEFFF7A0FF71207A
:100DB000FFF792FE00F058F9FFF7ABFD00F05CFA88
:100DC000FFF7A7FD064600F057FAFFF7A2FD07461A
:100DD00000F06EFA00F0ACFA0A20FFF7C0FEFFF751
:100DE00086FF2846FFF778FE00F03EF9B020044366
:100DF0002046FFF771FE00F037F93046FFF76CFE32
:100E000000F032F93846FFF767FE00F02DF900F0E8
:100E10008FFA01B0F0BD704770B501788278002A72
:100E200015D0FC220A400D4BD4588D07ED0EFF263D
:100E3000AE40B44340788001C0B2A8402043D050B7
:100E40001F200840012181400548016070BD1F201E
:100E50000140012088400349086070BD00E400E0C3
:100E600000E100E080E100E070470000054A002951
:100E700003D011680143116070471168814311600C
:100E80007047C04614100240054A002903D011687B
:100E90000143116070471168814311607047C0467B
:100EA00010100240054A002903D011680143116067
:100EB00070471168814311607047C04618100240A6
:100EC000054A002903D01168014311607047116879
:100ED000814311607047C0460C100240F0B583B0EA
:100EE0000446514E35462C3D28680007810F0022EC
:100EF0004E484F4F022911D3032912D02968890285
:100F0000090F8F1C2968C903890F0CD0311F0A688B
:100F10000F211140491CFFF78BF905E001920746AC
:100F200004E0019202E043484743019727602868A4
:100F30000006000F4049085C23681A46C240626000
:100F400028684005400F085CC240A2603068C005B8
:100F500001D43A4805E02868400401D4500800E074
:100F60009008E060306840060125E903002801D5BB
:100F7000084601E008461230029120613068C00640
:100F80002A4800D5184660613068800717460FD0A0
:100F900031680320014001291F4609D03168014012
:100FA0000229029F04D03168014003291F4F00D15C
:100FB000A761032031688903890F114613D0070404
:100FC000316839402E04B142174E19460BD03168B2
:100FD00039406E04B142144E029904D03168394050
:100FE000B942124900D1E16131680903890F11D07A
:100FF000800431680140AA0491421A460AD031683F
:101000000140EA049142029A04D0316801408142D1
:10101000064A00D1226230680006054800D50198D2
:10102000606203B0F0BDC0463010024000127A008A
:10103000006CDC0200093D00AE280008809FD5004E
:1010400010B57B22D203B94B1C6894431C60084343
:1010500019680143196010BDB4490A6803239A4313
:1010600002430A607047C046B0B500F02BF800F0AC
:1010700031F80824204600F095FC00F01BF82046CB
:1010800000F090FC00210D460920C00601246103F8
:10109000FFF71EFE632D02D8691C0028F3D1642DD2
:1010A00001D10020B0BD00F00DF8082000F07AFC5E
:1010B0002046B0BD80B50920C00601218903FFF795
:1010C00013FE80BD80B50920C00601218903FFF70A
:1010D00009FE80BD10B582B06C460020E071A08092
:1010E0000121480300904804FFF7C0FE0920C00614
:1010F0002146FFF7A5FD02B010BD70B582B06D4668
:101100000121A9804C0300944804FFF7AFFE092099
:10111000C60630462946FFF793FD30462146FFF7C5
:10112000E3FD02B070BD70B582B06D460121A980AB
:101130004C0300944804FFF799FE0920C606304688
:101140002946FFF77DFD30462146FFF7CBFD02B073
:1011500070BD0000B0B505461E4C0221204600F0CF
:101160003BF80028F9D02046294600F06FF801210D
:10117000204600F031F80028F9D0204600F05AF857
:10118000B0BDC0464A1E91418901028840239A435E
:10119000511801807047000010B50D4988420CD0ED
:1011A0000C49884212D101210C032046FFF788FE2A
:1011B00000212046FFF784FE10BD01218C0320464C
:1011C000FFF762FE00212046FFF75EFE10BDC0461D
:1011D000003800400030014000890840411E88412D
:1011E00070470000C1229201038813400A881A4305
:1011F000CB891343CA881A430B8913434A891A437C
:101200008B89134303808288084B13408A881A43D2
:1012100082800A8A0282028804239A434988114301
:101220000180818B024A0A4082837047FFF00000F0
:10123000FFF70000007B70478288034B13408380D8
:1012400082880A4382807047FFEF00000173704775
:1012500070470000B0B5FC220A40064BD4588907FD
:10126000090F0F258D40AC43D4508840D15801431D
:10127000D150B0BD0800014010B5FFF723FF08248E
:10128000204600F08FFBFFF74EFF204600F08AFB60
:10129000FFF710FF204600F085FBFFF713FF204605
:1012A00000F080FBFFF716FF204600F07BFB10BD2F
:1012B00010B5FFF707FF0824204600F073FBFFF787
:1012C0001CFF204600F06EFBFFF7F4FE204600F006
:1012D00069FBFFF7F7FE204600F064FBFFF723FFF2
:1012E000204600F05FFB10BD10B50F4811210160D2
:1012F0000E4C20682060206820600520C10400207A
:10130000FFF79EFE01200106201F02680A430260CB
:1013100001688901FCD50220FFF79EFE20680C21A0
:1013200001400829FAD110BD0020024004100240FB
:1013300010B5FFF7F8FE0824204600F033FBFFF756
:10134000B9FE204600F02EFBFFF7D7FE204600F046
:1013500029FB10BD001F41424141880003490A6832
:1013600004239A43101808607047C04610E000E05C
:101370007047000080B51348026801210A430260EB
:101380004268114B134043600268104B13400360E6
:101390008A040368934303603F2212044368934323
:1013A0004360C26A0F239A43C262FF225432036B26
:1013B00093430363426B8A43426300218160FFF7DA
:1013C00093FF80BD001002400CB8FF08FFFFF6FE3F
:1013D00010B5084C0121204600F013F8002804D075
:1013E00005480068002800D080470121204600F011
:1013F00005F810BD000400400C000020C943018224
:101400007047028A0A40531E9A4180890840411E53
:10141000884110407047000010B5594C0A492046D9
:1014200000F025F8002809D0204600F0ADF8074963
:101430000968002906D0C0B2884710BD4021204667
:1014400000F006F810BDC0460501050010000020A0
:10145000016270474A1E9141026801239A43511864
:1014600001607047C0690840411E884170470A0A00
:10147000D2B2022A03D0012A03D1024603E0021DA0
:1014800001E002460832CBB21268DA40090CC369A7
:10149000CB40134001201840704710B5CCB2012357
:1014A000090AC9B2032903D0022902D1001D00E0B4
:1014B0000830A340002A03D001681943016010BD21
:1014C00001689943016010BDF0B58BB00D4604462C
:1014D00000680121009188432060032001036268B5
:1014E0008A43A968114361602168224A0A406968F9
:1014F0001143EA680A432969114321600002A16887
:10150000814368690843A06001A8FFF7E7FC1A4817
:10151000844208D01948844208D01948844208D12E
:1015200001A8183007E001A81C3004E001A8203011
:1015300001E001A8083006682068000400D57600A4
:101540002F6830463946FEF773FE4743F11B009A79
:10155000D2032B685B08994200D3401C21681142DA
:1015600004D0084901400007400F4018A0810BB08B
:10157000F0BDC046F3E9FFFF0044004000480040D2
:1015800000380140F0FF0000818C0348084070479C
:10159000014A0A4002857047FF01000070B586B01D
:1015A0001449086004AE0220F0710024B4800125C3
:1015B000049568042946FFF759FC0920C006314606
:1015C000FFF73EFB02A885712903818001AEB5704B
:1015D000052131800295FFF703FB3046FFF71CFC25
:1015E00020462146FFF736FE06B070BD014908606F
:1015F0007047C0460800002080B500F0F5F9E120F2
:10160000400200F03DFA00F03DF800F0D6F800206E
:10161000FFF7C4FFFFF740F980BD10B582B06C46FC
:101620000121A180042000904804FFF71FFC09203D
:10163000C0062146FFF704FB00F062F902B010BDBE
:1016400080B5FFF787FD80BD10B5044600F049F96D
:101650000920C0060421FFF745FB2046FFF7F0FFF5
:1016600000F038F910BD10B5044600F03AF9092031
:10167000C0060421FFF738FB2046FFF7E1FF00F02A
:1016800029F910BD10B582B06C460121A18002205D
:1016900000908804FFF7EAFB0B482146FFF7D0FAD9
:1016A00002B010BD10B5084C02212046FFF710FB18
:1016B0000221002803D02046FFF714FB10BD20466E
:1016C000FFF712FB10BDC0460004004870B500F0E3
:1016D00081F8AE20FFF7B8FF00263046FFF7B4FFD1
:1016E0001020FFF7B1FF40252846FFF7ADFF81200E
:1016F000FFF7AAFFCF20FFF7A7FFA120FFF7A4FF66
:10170000C820FFF7A1FFA6242046FFF79DFFA820D1
:10171000FFF79AFF3F20FFF797FFD320FFF794FFD3
:101720003046FFF791FFD520FFF78EFF8020FFF7AF
:101730008BFFD920FFF788FFF120FFF785FFDA2024
:10174000FFF782FF1220FFF77FFFDB20FFF77CFF10
:101750002846FFF779FF2020FFF776FF0220FFF7EA
:1017600073FF8D20FFF770FF1420FFF76DFFA4209B
:10177000FFF76AFF2046FFF767FFAF20FFF764FF20
:1017800070BD70B50024254628465038C0B2FFF71A
:101790005BFF0120FFF758FF1020FFF755FF26469B
:1017A0000020FFF760FF701C46B2002EF8D5681CC1
:1017B000E9B207290546E7D370BD80B5FFF72DFFD5
:1017C000FFF784FFFFF7DDFF0020014600F022F85D
:1017D00080BD000070B582B06D460121A98008244B
:1017E00000944804FFF742FB0920C606304629460C
:1017F000FFF726FA30462146FFF774FA044800F056
:10180000D1F830462146FFF76FFA02B070BDC046EE
:1018100060EA000010B50C465038C0B2FFF714FF64
:1018200020091030FFF710FF0E202040401CFFF76A
:101830000BFF10BD70B5032818D81446002A15D028
:101840000D462178002911D04006060E08E0CAB2E4
:10185000314600F00DF8641C08352178002905D0C8
:1018600048B20028F9D4E8B27828F0D970BD000059
:10187000F0B581B016460091C9B2C5B208462946F6
:10188000FFF7C8FF0027202E01D83E4604E07F2046
:1018900040023101081886B20D488419E05DFFF757
:1018A000E2FE7F1C082FF9D10098401CC0B22946E7
:1018B000FFF7B0FF08200643054884190025605D46
:1018C000FFF7D1FE6D1C082DF9D101B0F0BDC04667
:1018D000BE28000880B50920C0061021FFF704FAD1
:1018E00080BD10B50920C40610212046FFF7FAF983
:1018F00010212046FFF7F1F90028F9D110BD0000B2
:10190000F0B58BB0012460042146FFF7AFFA200345
:1019100000902146FFF7C6FA1F480990E020089082
:101920000920C60608A93046FFF78AF905210027D5
:1019300030463A46FFF7BCF9062130463A46FFF7F3
:10194000B7F9072130463A46FFF7B2F9FF200230D7
:1019500007901027069706A93046FFF771F9304621
:101960003946FFF7C1F90D4801AE3146ACC8ACC1EC
:10197000008808800A4F3846FFF70EFC384631468B
:10198000FFF730FC38460099FFF756FC38462146F1
:10199000FFF7F8FB0BB0F0BD020100029C28000825
:1019A0000030014010B504460B4800680B49FEF7B3
:1019B0003FFC60430A494860002088600B680122B0
:1019C00013430B60074B0C681C40012CFBD00B68C9
:1019D00093430B60886010BD0000002000127A0065
:1019E00010E000E00100010080B50420C043FFF7D3
:1019F000B1FC80BDF0B585B003AC0020E071812161
:101A00004900A18001ADE871A98001267002039010
:101A1000B002019070043146FFF728FA0921CF0681
:101A200038463246FFF744F90A2138463246FFF776
:101A30003FF938462146FFF703F938462946FFF7B4
:101A4000FFF805B0F0BD000070B582B001AC012513
:101A5000A5701B2020802B4E074930462A46FFF7F1
:101A60001CFD064930462A46FFF717FD2046FFF7C2
:101A7000D3F902B070BDC04605010500060106009D
:101A800010B50446FFF7B6FF204600F003F8FFF755
:101A9000DBFF10BDB0B586B000210391019100902D
:101AA000059102910C2004900124A0032146FFF728
:101AB000F9F9144D69462846FFF706FD28462146E8
:101AC000FFF7C8FC06B0B0BD014908607047C046CA
:101AD00010000020F0B581B0002910D00C4605465A
:101AE0000027084EE95D3046FFF752FD8021304661
:101AF000FFF7B8FC0028F9D07F1CA742F2D101B053
:101B0000F0BDC04600380140FFF776FD00F022F836
:101B100000F0F4F87D20C000FFF744FF012000F042
:101B2000C7F8F7E70A4800687047C0460848002130
:101B30000160704780B50248FFF758FD80BDC04680
:101B4000451B000802480168491C01607047C046F7
:101B50001400002080B500F0A3F800F007F800F0B2
:101B60000FF8FFF7E7FF00F07DF880BD704710B574
:101B70000446FEF7F9FA01462046FFF7ABFF10BD19
:101B80007047F0B585B0009315460E460746002015
:101B90000490039002900190002F0AD0002401AA23
:101BA00020462146FFF746FE204621463A46FFF7EB
:101BB00041FE002E0BD00124002701AA2046394601
:101BC000FFF738FE204639463246FFF733FE002D38
:101BD0000BD00224002601AA20463146FFF72AFE38
:101BE000204631462A46FFF725FE009E002E0BD0E8
:101BF0000324002501AA20462946FFF71BFE2046A4
:101C000029463246FFF716FE05B0F0BD80B5FFF756
:101C10005BFF80BD80B5FFF745FD80BDB0B584B0EA
:101C2000044601AD2846FEF7FFFD00202978002973
:101C300003D00399216004B0B0BDC04304B0B0BD6F
:101C4000B0B584B0044601AD2846FEF7EDFD002096
:101C50002978002903D00299216004B0B0BDC043A7
:101C600004B0B0BD70470000F0B50024224D26013D
:101C7000AF57002F06D5661C092C3446F7D3FF2436
:101C8000E0B2F0BDAD19E881A8816B60AA600029BF
:101C900001D03F2000E07F20C0432870E0B2F0BDBB
:101CA00000201549024688541032A02AFBD1704703
:101CB000F0B581B00025104E2F46009005E0091ABE
:101CC000E18110357F1CA02D14D071570029F8D563
:101CD0007419E1898142F2D86168A268F8B290472C
:101CE000705D400602D40020705501E0A089E081BB
:101CF0000098E6E701B0F0BD1800002080B500F0C4
:101D0000F5F800F097F800F067F800F00DF900F032
:101D100003F800F09FF880BDB0B50948FFF776FFE3
:101D2000192000010124074A002521462B46FFF710
:101D30009BFF3C20044A21462B46FFF795FFB0BD90
:101D4000791D0008991D00084D1D0008B0B5A0B010
:101D500068468021FEF7FDF90D4D2A78002A09D04A
:101D60006C460C492046FEF7DBF90020287020461F
:101D7000FFF7FDFE20B0B0BD10B505490B785AB293
:101D8000002A03D4034CE054501C087010BDC04618
:101D9000B8000020BC00002010B5FFF7C3FE0446C9
:101DA000FFF7C4FE012C03D0022C04D1094800E047
:101DB00001A0FFF7DCFE10BD5441534B5B494E5070
:101DC00055545D2073696E676C6520636C69636B45
:101DD0000A000000AE2E000880B57D20C000012161
:101DE000024A0023FFF740FF80BDC046F11D0008F6
:101DF00010B584B008480268511C01606C4607A108
:101E0000204600F0AFF808A0002221461346FFF755
:101E1000B8FE04B010BDC0463C010020436F756E93
:101E2000743D2564000000005441534B5B4C434417
:101E30005D00000080B57D20C0000121024A002322
:101E4000FFF712FF80BDC0464D1E000880B5FFF7AA
:101E5000E1FE80BD80B503480121034A0023FFF75E
:101E600003FF80BDDC0500006D1E000810B58AB0C0
:101E700001A8FFF7E5FE00280FD10198FEF7C4F98D
:101E800002460B4602AC11A1204600F06BF8002080
:101E9000014622460346FFF774FE6846FFF7BEFE82
:101EA000002801D00AB010BD0098FEF7ADF9024637
:101EB0000B4602AC09A1204600F054F80020014670
:101EC00002462346FFF75DFE0AB010BD74656D70D3
:101ED0003A20252E316620430000000068756D69A8
:101EE0003A20252E316620252500000080B57D2072
:101EF00000010121024A0023FFF7B6FE80BDC04663
:101F0000051F000880B502A0FFF731FE80BDC04666
:101F10005461736B5B544553545D2052756E6E690A
:101F20006E672E2E2E0A000080B57D20C000012194
:101F3000024A0023FFF798FE80BDC046411F0008FB
:101F400080B502A0FFF713FE80BDC0465461736BDD
:101F50005B554152545D2052756E6E696E672E2E30
:101F60002E0A00000FB410B504A9074B02AA03986B
:101F700000F0ECF8044602A9002000F083FC2046A3
:101F800010BC08BC04B01847852800082021020CAA
:101F900001D010211046020A01D01046083902096A
:101FA00001D01046091F820801D01046891E420840
:101FB00001D0881E7047081A704702E008C8121F37
:101FC00008C1002AFAD170477047002001E001C122
:101FD000121F002AFBD17047F0B51FB486B00998D4
:101FE000089A030D0021024314D05148514A181891
:101FF000504305141198012810981AD0281A401C33
:1020000000264D4F4D49009601910490002812DAA8
:10201000444211E01198012449A3012801D11098EC
:10202000C1430698119A84600360C26041600BB09E
:10203000F0BD4042E4E70446210500203F4A001C71
:1020400051410391029012E0E00707D032463B462F
:1020500001990098FEF72EFA0191009032463B4616
:1020600010461946FEF726FA06460F466410002C65
:10207000EAD10498039B0028029A0999089806DA85
:10208000FEF718FA019B009AFEF714FA05E0FEF736
:1020900079FA019B009AFEF775FA04460E46002273
:1020A000284BFEF707FB03D80020C043014607E09A
:1020B0000022254B20463146FEF74AF9FEF7DAFAB0
:1020C000102409E0002C0ADB0A220023FEF7CFF8D7
:1020D000079B30321A55641E02460A43F2D1112280
:1020E000641C079B121B1C19119B012B03D001239D
:1020F00008430ED10AE0084304D0112010900020BC
:10210000119077E71098151A6D1E0BE01098824217
:1021100002DD00236D1C03E0824201DA00236D1E04
:10212000002BEED0069811998260C16030C07EE726
:1021300001FCFFFF104D0000000014400000F03FC4
:10214000300000000000F0430000E03FFFB597B012
:102150000646002518E2252877D100242746FD49A8
:10216000049400E00443761C32780120203A904029
:102170000842F7D130782A280ED002223078014662
:102180003039092916D804990A235943303940189F
:102190001443761C0490F1E7189802C80491189033
:1021A000002904DA0120400304434842049002203D
:1021B0000443761C30782E2814D104200443707810
:1021C000761C2A2809D11898761C80C8189009E036
:1021D0000A214F43303FC719761C30780146303909
:1021E0000929F5D930786C2810D006DC4C281AD093
:1021F00068280ED06A2817D104E0742813D07A28F2
:1022000012D110E00120400504430CE00121090532
:1022100001E0032109050C437178814203D10120BB
:1022200000052418761C761C3078119066280BD097
:1022300013DC58287DD009DC00287BD04528F6D057
:102240004628F4D047281AD1A5E118E0632835D0F4
:10225000642870D0652812D19DE170286CD008DC0C
:102260006728F1D069287BD06E280DD06F2806D161
:10227000BAE073282ED0752871D0782859D01A9AD0
:10228000199990476D1C7EE16002400F022809D029
:1022900003280DD00428189801680DD00D60001D8A
:1022A000189070E11898EA1701680D604A60F6E727
:1022B000189801680D80F2E70D70F0E718986A46EB
:1022C00001781172001D18900020507202A8009031
:1022D000012005E0189802C8189000200091C04322
:1022E00061070DD5002101E00199491C0191B94216
:1022F00012DA8142F8DB009A515C0029F4D10BE03C
:10230000002101E00199491C01918142FADB019A07
:102310000099895C0029F5D1019904981A9B471A04
:1023200021463846199A00F097FA01994019451844
:102330000BE04FE02CE113E04EE0009800990078AC
:10234000491C00911A9A199990470198401E0190D2
:10235000401CF2D1214638461A9B199A10E137E009
:102360000A200021009001916002410F022907D04C
:10237000189A01CA1892C2179446032908D00AE095
:102380001898C01DC108C90005C91891944607E0F6
:1023900000B2C2179446042902D140B2C1178C463C
:1023A00000226146944506DA0A46002140429141E6
:1023B0008C462D2102E0210504D52B216A4611739C
:1023C000012103E0E10701D02021F7E7029155E068
:1023D0000A200AE0102008E01020009000210420CC
:1023E00004430191082703E0082000210191009097
:1023F0006002410F022907D0189A01CA18920022E0
:102400009446032908D008E01898C01DC108C900E7
:1024100005C91891944603E080B2042900D1C0B2E6
:1024200000210291210729D51199702906D0009A1F
:102430001021019B4A401A4305D00EE040216A4614
:102440001173012108E06146014306D030216A463C
:1024500011731199517302210291009A0821019B75
:102460004A401A430AD16146014301D1610705D5AB
:1024700030216A46117301217F1E0291119958295A
:1024800004D035A10E910DA90D910DE037A1F9E70A
:102490006146019B009AFDF7EAFE0E9B8C469B5C11
:1024A0000D9A521E0D92137061460143F0D10D98A2
:1024B00005A9081A20300190600703D50120000407
:1024C000844300E001270198874201DD381A00E0CB
:1024D0000020019900904118029809180498401AA8
:1024E0000490E00306D421461A9B199A049800F040
:1024F000B3F94519002706E003A81A9AC05D199997
:1025000090476D1C7F1C02988742F5DBE0030CD5D9
:1025100021461A9B199A049800F09EF9451904E087
:102520001A9A3020199990476D1C0099481E009006
:102530000029F5DC08E00D980D990078491C0D91F3
:102540001A9A199990476D1C0199481E019000290B
:10255000F1DC63E10928010030313233343536379C
:1025600038396162636465660000000030313233DF
:10257000343536373839414243444546000000007F
:1025800000F05AF94519761C3078002800D0E2E5B1
:1025900028461BB0F0BD600700D406271898C01D60
:1025A000C108C90048680A680831C30FDB071891E1
:1025B000190001D09CA108E0210501D59BA104E0F0
:1025C000E10701D09AA100E09AA1430011985B08AD
:1025D000109165280CD006DC452809D046281DD06E
:1025E000472841D141E0662818D067283CD13CE01B
:1025F0000021112F01DB112000E0781C01910090D7
:1026000008A911A8FFF7E8FC139905910021119A78
:1026100015927F1C12980197009150E00120C0078D
:1026200003900120019008A9009711A8FFF7D4FC9E
:10263000139A149905920022119B009212981593F7
:10264000059A0192002901D0104602E0791C401839
:102650000190381A01D5019804E04042401E0090D4
:10266000781C0190C01B029043E0012F00DA012783
:102670000021112F01DD112000E03846019100906A
:1026800008A911A8FFF7A8FC13990591119A002138
:10269000129815920091019721070CD40599B9421F
:1026A00001DB019900E00191012904DD159A491E21
:1026B000515C302906D0B84201DA011D05DA01214A
:1026C000029115E00199491EEDE7002805DC00990B
:1026D000411800910199091A03E0019A411C9142A5
:1026E00000DD01910099401A401C02900120C007B2
:1026F0000390200706D402990198814202DB002052
:10270000C043029000206946C87707AF01210398B3
:102710000337C907884224D0022011902B20129041
:10272000039800280CDA404203902D20129007E015
:102730000A210398FDF77CFD30317F1E039039702C
:102740001199481E11900029F2DC03980028EFD15E
:10275000791E129808703078202108404530BF1E3D
:10276000387006A8C01BC01D039010980078002880
:1027700000D00120019941180298C0170918039848
:1027800009180498401A401E0490E00306D421461C
:102790001A9B199A049800F05FF845191098007870
:1027A000002803D01A9A199990476D1CE00324D58C
:1027B00021461A9B199A049800F04EF845191CE01E
:1027C0000098002807DB00990598884203DD1598DA
:1027D000405C199901E0199930201A9A90470098A5
:1027E0006D1C401C00900298401E0290002804D1ED
:1027F0001A9A2E20199990476D1C0199481E019034
:102800000029DDDC05E038781A9A7F1C1999904779
:102810006D1C0399481E03900029F4DC21461A9B85
:10282000199A0498ACE600002D0000002B0000006F
:102830002000000000000000F8B5044600251E46F8
:102840001746880404D405E039462020B0476D1CA3
:10285000641EF9D52846F8BDFFB50446002581B0B1
:102860001E46C80301D5302700E02027880404D580
:1028700005E038460399B0476D1C641EF9D528461B
:1028800005B0F0BD0A68531C0B6010707047000063
:102890000100000000000000000000000000040132
:1028A00000070200010000021800000007000000FD
:1028B00000000102030401020304060708090000E6
:1028C0000000000000000000000000000000000008
:1028D00000F800000000000000333000000000108D
:1028E0000C06100C0600000000000000000040C0B4
:1028F0007840C0784000043F04043F0404000070A6
:1029000088FC08300000001820FF211E0000F0089D
:10291000F000E018000000211C031E211E0000F042
:102920000888700000001E2123241927211010168A
:102930000E00000000000000000000000000000089
:1029400000E0180402000000000718204000000208
:102950000418E0000000004020180700000040407C
:1029600080F0804040000202010F010202000000DE
:1029700000F0000000000101011F01010100000042
:1029800000000000000080B07000000000000000A7
:102990000000000000000001010101010101000030
:1029A00000000000000000303000000000000000C7
:1029B000000080601804006018060100000000E0BC
:1029C00010080810E000000F102020100F00001069
:1029D00010F8000000000020203F202000000070C0
:1029E00008080888700000302824222130000030B8
:1029F0000888884830000018202020110E000000B0
:102A0000C02010F8000000070424243F240000F830
:102A10000888880808000019212020110E0000E015
:102A2000108888180000000F112020110E000038B7
:102A30000808C83808000000003F000000000070CF
:102A4000880808887000001C222121221C0000E058
:102A500010080810E0000000312222110F000000D1
:102A600000C0C00000000000003030000000000086
:102A700000800000000000008060000000000000F6
:102A8000804020100800000102040810200040408F
:102A900040404040400004040404040404000008D2
:102AA0001020408000000020100804020100007087
:102AB00048080808F0000000003036010000C0306F
:102AC000C828E810E0000718272423140B00000092
:102AD000C038E0000000203C23020227382008F81C
:102AE000888888700000203F202020110E00C03010
:102AF000080808083800071820202010080008F8E7
:102B000008080810E000203F202020100F0008F8DF
:102B10008888E8081000203F20202320180008F8AB
:102B20008888E8081000203F200003000000C03023
:102B300008080838000007182020221E020008F8A4
:102B400008000008F808203F210101213F2000086B
:102B500008F8080800000020203F202000000000A6
:102B60000808F8080800C08080807F00000008F88E
:102B700088C028180800203F20012638200008F8C7
:102B8000080000000000203F20202020300008F82E
:102B9000F800F8F80800203F003F003F200008F848
:102BA00030C00008F808203F200007183F00E01060
:102BB00008080810E0000F10202020100F0008F86F
:102BC00008080808F000203F210101010000E01082
:102BD00008080810E0000F18242438504F0008F8A7
:102BE000888888887000203F2000030C3020007007
:102BF0008808080838000038202121221C00180805
:102C000008F8080818000000203F2000000008F81D
:102C100008000008F808001F202020201F00087866
:102C2000880000C83808000007380E010000F808C6
:102C300000F80008F800033C0700073C03000818F0
:102C400068808068180820302C03032C3020083856
:102C5000C800C83808000000203F2000000010080D
:102C60000808C83808002038262120201800000055
:102C700000FE020202000000007F40404000000C05
:102C800030C000000000000000010638C000000253
:102C90000202FE000000004040407F0000000000F3
:102CA0000402020204000000000000000000000016
:102CB0000000000000008080808080808080000212
:102CC00002040000000000000000000000000000FE
:102CD0008080808000000019242222223F2008F8F2
:102CE000008080000000003F112020110E00000035
:102CF000008080800000000E1120202011000000C4
:102D000000808088F800000E112020103F20000075
:102D1000808080800000001F222222221300008079
:102D200080F0888888180020203F202000000000C4
:102D3000808080808000006B94949493600008F8F9
:102D4000008080800000203F210000203F20008084
:102D50009898000000000020203F20200000000084
:102D600000809898000000C08080807F000008F8F4
:102D7000000080808000203F24022D3020000008C9
:102D800008F8000000000020203F20200000808084
:102D9000808080808000203F20003F20003F808096
:102DA000008080800000203F210000203F200000A4
:102DB000808080800000001F202020201F00808055
:102DC00000808000000080FFA12020110E00000084
:102DD000008080808000000E112020A0FF80808075
:102DE00080008080800020203F2120000100000022
:102DF00080808080800000332424242419000080F7
:102E000080E0808000000000001F20200000808003
:102E1000000000808000001F202020103F208080C4
:102E200080000080808000010E3008060100808054
:102E30000080008080800F300C030C300F00008079
:102E40008000808080000020312E0E3120008080A4
:102E500080000080808080818E70180601000080D4
:102E60008080808080000021302C222130000000F2
:102E70000000807C020200000000003F4040000093
:102E80000000FF00000000000000FF000000000242
:102E9000027C800000000040403F0000000000066F
:102EA000010102020404000000000000000054417F
:102EB000534B5B494E5055545D20646F75626C6591
:102EC00020636C69636B0A00E82E00080000002094
:102ED00004000000BA1F0008EC2E000808000020C3
:0C2EE00038050000CA1F0008006CDC026E
:04000005080000C926
:00000001FF
