:020000040800F2
:1000000000040020CD000008D1010008CF01000845
:1000100000000000000000000000000000000000E0
:100020000000000000000000000000001D020008A9
:100030000000000000000000D3010008E9020008F1
:10004000FD00000800000000FD000008FD000008A1
:10005000FD000008FD000008FD000008FD0000088C
:1000600000000000FD000008FD000008FD00000881
:10007000FD000008FD000008FD0000080000000071
:10008000FD0000080000000000000000FD00000866
:10009000FD000008FD000008FD000008FD0000084C
:1000A000FD000008FD000008FD000008FD0000083C
:1000B000FD0000080448854600F034F80048004779
:1000C000BD030008C046C046000400200C4880F371
:1000D00008880C480168090E0B4A914205D10B486B
:1000E0000B4901600B480C4901600C4880470C48E3
:1000F0000047FEE7FEE7FEE7FEE7FEE7FEE700005B
:1001000000040020040000001F000000181002403E
:10011000010000000000014000000000ED020008A6
:10012000B5000008064C0125064E05E0E36807CC43
:100130002B430C3C98471034B442F7D3FFF7BEFF73
:10014000D8030008E8030008F0B500220124234684
:100150000D6893401D409D422AD10D79012D01D09B
:10016000022D12D1876855000326AE40B743876041
:100170004E79AE4085682E43866085889D43858094
:1001800085888B7993401D4385800668550003233D
:10019000AB409E4306600E790768AE403E43066062
:1001A000C6689E43C660CB79AB40C5682B43C3602D
:1001B000521C102ACBD3F0BD0246128A00200A42FC
:1001C00000D0012070470185704781617047FEE7CC
:1001D00070477047044A0029516901D0014300E08B
:1001E00081435161704700000010024010B5054A7C
:1001F00053687B24E403A3435360536808430343D9
:10020000536010BD00100240034A516889088900FC
:100210000143516070470000001002407047000029
:100220007CB500202E4C0190009021680122120420
:1002300011432160520005210903236813400093F4
:10024000019B5B1C0193009B002B02D1019B8B4205
:10025000F3D1216801258B031121224A2D06002BA1
:1002600023DA01200090116060686060606860605F
:1002700060687F21C903884360606068D1000843DB
:10028000606020682843206020688001FCD5606899
:1002900080088000606060680221084360606068D8
:1002A0000007800F0228FAD17CBD009011606068C1
:1002B0006060606860600521C9040020FFF796FF58
:1002C00020682843206020688001FCD50220FFF7C9
:1002D0009BFF60680007800F0228FAD17CBD0000F8
:1002E00000100240002002407047000010B5144882
:1002F00001680122114301604168124A11404160C6
:100300000168114A11400160016801229204914381
:10031000016041683F22120491434160C16A0909AA
:100320000901C162016BFF22543291430163416BA9
:1003300049084900416300218160FFF771FF10BD4A
:10034000001002400CB8FF08FFFFF6FE02E008C8EC
:10035000121F08C1002AFAD170477047002001E03F
:1003600001C1121F002AFBD1704700001CB50121FA
:100370006846017100214171022000900121400472
:10038000FFF728FF69460248FFF7DEFE1CBD0000AC
:100390000004004810B5084C02212046FFF70CFF6E
:1003A000002804D002212046FFF70DFF10BD0221D6
:1003B0002046FFF70AFF10BD00040048FFF7D6FFF4
:1003C000044DFFF7E7FF2C460220401CA042FCD35F
:1003D000F7E70000A8FD6300E80300080000002024
:0803E000000400005C030008AA
:04000005080000B53A
:00000001FF
