:020000040800F2
:1000000030040020CD000008590300085703000801
:1000100000000000000000000000000000000000E0
:10002000000000000000000000000000CD050008F6
:100030000000000000000000AD030008B106000849
:10004000FD00000800000000FD000008FD000008A1
:10005000FD0000085D020008FD000008FD0000082A
:1000600000000000FD000008FD000008FD00000881
:10007000FD000008FD000008FD0000080000000071
:10008000150700080000000000000000FD00000847
:10009000FD000008FD000008FD000008FD0000084C
:1000A000FD000008FD000008FD00000861070008D1
:1000B000FD0000080448854600F052F8004800475B
:1000C000710C0008C046C046300400200C4880F384
:1000D00008880C480168090E0B4A914205D10B486B
:1000E0000B4901600B480C4901600C4880470C48E3
:1000F0000047FEE7FEE7FEE7FEE7FEE7FEE700005B
:1001000030040020040000001F000000181002400E
:10011000010000000000014000000000B5060008DA
:10012000B500000830B50B4601460020202201240E
:1001300009E00D46D5409D4205D31D469540491B1B
:100140002546954040191546521E002DF1DC30BD64
:10015000421C0178401C0029FBD1801A7047000026
:10016000064C0125064E05E0E36807CC2B430C3C0A
:1001700098471034B442F7D3FFF7A0FFC40C00082F
:10018000E40C0008836A0B438362426170470029D4
:10019000816801D0012200E0022211438160704792
:1001A0000029C16802D00122114301E04908490039
:1001B000C1607047064910B5884208D14415012135
:1001C000204600F023F90021204600F01FF910BD61
:1001D00000240140826800210123DB071A4382606A
:1001E0000F231B038268491CD20FD207994201D00A
:1001F000002AF7D18168002901DB006C70470020DC
:100200007047006C80B2704702460020CB0104D5D5
:10021000926801231B069A4300E012680A4200D04C
:100220000120704730B5C368084A8C6813400A68DB
:100230000D792243CC686D032C4322430C69496934
:1002400022430A431A43C26030BD000003D2FFFFBD
:1002500081680422114381607047000010B50120BD
:1002600000F020F800280FD0094C206800280BD09F
:10027000084800F05FFC09200121C00600F064F886
:10028000002801D120688047012000F005F810BD4A
:100290001400002010270000014948617047000049
:1002A00000040140034A0146526900200A4200D07E
:1002B0000120704700040140F0B5002201242346CC
:1002C0000D6893401D409D422AD10D79012D01D02A
:1002D000022D12D1876855000326AE40B7438760D0
:1002E0004E79AE4085682E43866085889D43858023
:1002F00085888B7993401D438580066855000323CC
:10030000AB409E4306600E790768AE403E430660F0
:10031000C6689E43C660CB79AB40C5682B43C360BB
:10032000521C102ACBD3F0BD4B07DB0E9A40C908F4
:1003300010B589000818016A0F249C40A14301628E
:10034000016A1143016210BD0246128A00200A426E
:1003500000D001207047FEE77047000030B5837879
:1003600001210278002B15D094080E4BA400E4184C
:1003700023689207D50EFF22AA4093434278920742
:10038000120EAA401A4322600078C006C00E8140B7
:10039000054804E0D006C00E81400348803001606B
:1003A00030BD000000E400E000E100E07047000024
:1003B00009494A6801239B039A434A604A6883B209
:1003C0001A434A600A6B8B159A430A630A6B000C46
:1003D00002430A637047000000100240044A0029EB
:1003E000516901D0014300E0814351617047000031
:1003F00000100240044A0029916901D0014300E045
:10040000814391617047000000100240044A0029B6
:10041000D16801D0014300E08143D1607047000002
:1004200000100240F8B5564D0446686800210C22C1
:10043000544E104005D0042803D0082803D00C28BF
:100440001AD026601AE06968686803228902D2031C
:100450000F0F1040BF1C00280AD0E86A0107090FDF
:100460003046491CFFF75EFE78430146216005E0F7
:10047000454839464143F9E7444820606868444F9D
:100480000006000F3B5C20680246DA4062606B6841
:100490005B055B0FFB5CDA40A2602B6BDB0501D4D4
:1004A0003C4B05E06B685B0401D4530800E0930803
:1004B000E3602B6B5F06384B03D4374F123727614D
:1004C00000E023612F6BFF0601D4666100E06061EC
:1004D0002F6BBF070ED02F6BBF07BF0F012F0BD0A5
:1004E0002F6BBF07BF0F022F08D02F6BFF43BF0733
:1004F00006D006E0A26104E0A06102E0A36100E092
:10050000A6612F6BBF03BF0F0FD02F6BBF03BF0FB1
:10051000012F0CD02F6BBF03BF0F022F09D02F6B01
:10052000BF03BF0F032F06D006E0E26104E0E061E5
:1005300002E0E36100E0E6612F6B3F03BF0F0FD0E5
:100540002A6B1203920F012A0CD0286B0003800F34
:10055000022809D0286B0003800F032806D006E08C
:10056000226204E0206202E0236200E02662286B3F
:10057000000602D405486062F8BD6162F8BD000063
:100580000010024000127A0000093D00006CDC02FD
:1005900020000020809FD5000080000010B5054A93
:1005A00053687B24E403A343536053680843034325
:1005B000536010BD00100240034A51688908890049
:1005C0000143516070470000001002407047000076
:1005D0007CB500202E4C019000902168012212046D
:1005E0001143216052000521090323681340009341
:1005F000019B5B1C0193009B002B02D1019B8B4252
:10060000F3D1216801258B031121224A2D06002BED
:1006100023DA0120009011606068606060686060AB
:1006200060687F21C903884360606068D100084327
:10063000606020682843206020688001FCD56068E5
:100640008008800060606068022108436060606824
:100650000007800F0228FAD17CBD0090116060680D
:100660006060606860600521C9040020FFF796FFA4
:1006700020682843206020688001FCD50220FFF715
:100680009BFF60680007800F0228FAD17CBD000044
:100690000010024000200240042204490428086996
:1006A00002D09043086170471043FBE700E000E090
:1006B0007047000010B51448016801221143016021
:1006C0004168124A114041600168114A11400160BD
:1006D0000168012292049143016041683F221204A3
:1006E00091434160C16A09090901C162016BFF229E
:1006F000543291430163416B490849004163002131
:100700008160FFF765FF10BD001002400CB8FF08C4
:10071000FFFFF6FE10B5084C0121204600F013F84B
:10072000002804D005480168002900D0884701212D
:10073000204600F005F810BD00040040180000201D
:10074000C943018270470246138A002092890B40F8
:100750000A40002B02D0002A00D001207047000080
:1007600010B50C4C0A49204600F02BF8002809D09F
:10077000204600F0ABF80849C0B20968002900D053
:10078000884710BD4021204600F008F810BD000049
:1007900005010500003801401C000020016270477F
:1007A0000029016802D00122114301E049084900F3
:1007B000016070470246D26900200A4200D0012041
:1007C000704730B50A04130E0122144600258C40F0
:1007D000012B0ED0022B0ED08368090C2340C06978
:1007E0008A401040002B02D0002800D00125284666
:1007F00030BD0368F1E74368EFE710B50B041C0E4A
:1008000001238B40022C02D0032C02D002E0001DF9
:1008100000E008300168002A01D0194300E0994344
:10082000016010BD30B5044600688BB00D4640082D
:10083000400020606068032109038843A9680143E0
:10084000616020681C49EA680840696811432A69A8
:10085000024311432160A0680321090288436969AA
:100860000143A1606846FFF7DDFD1448844201D1D1
:1008700006980AE01248844201D1079805E0114821
:10088000844201D1089800E002982168090429688F
:1008900000D54000FFF746FC2A6852088A4200D87B
:1008A000401C2168090404D50107074A490F10407C
:1008B0000843A0810BB030BDF3E9FFFF00380140D1
:1008C0000044004000480040F0FF0000808CC0055C
:1008D000C00D7047C905C90D018570470FB410B52B
:1008E00004A9074B02AA039800F01CF8044602A9C9
:1008F000002000F0BFF8204610BC08BC04B0184728
:10090000750A000802E008C8121F08C1002AFAD1BF
:1009100070477047002001E001C1121F002AFBD17F
:1009200070470000FFB58DB00446002506E025287D
:100930000AD0109A0F999047641C6D1C20780028EB
:10094000F5D1284611B0F0BD00270121484A009793
:1009500000E00743641C23780846203B984010427F
:10096000F7D120782E2817D1042007436078641C23
:100970002A280CD10E98641C02C800910E900BE03E
:1009800000990A22514330394018641C00902078A5
:10099000014630390929F3D920780028D1D06428BC
:1009A00008D0692806D075281ED0109A0F99904754
:1009B0006D1C5BE00A200E99019001C90E91002880
:1009C00002DA40422D2102E0390504D52B216A4686
:1009D0001172012103E0F90704D02021F7E70BAEE3
:1009E0000B910DE00021FAE70A200E99019001C950
:1009F0000E91F7E70199FFF795FB3031761E3170C4
:100A00000028F7D103A8801B20300190780701D57A
:100A1000009801E0012000900199884201DD401A10
:100A200000E000200027009006E002A8109AC05DB8
:100A30000F9990476D1C7F1C0B988742F5DB04E0F3
:100A4000109A30200F9990476D1C0099481E009015
:100A50000029F5DC05E03078109A761C0F99904754
:100A60006D1C0199481E01900029F4DC641C65E7A7
:100A7000092801000A68531C0B60107070470000C1
:100A800030B589B001200690032069460877002020
:100A9000C87700900871029004900420059001210D
:100AA000C003FFF79BFC01214802FFF7A3FC154898
:100AB000FFF77EFC144C2046FFF77CFB06A9600480
:100AC000FFF7FAFB69462046FFF7ACFB0522012140
:100AD0002046FFF757FB2046FFF77CFB012120460D
:100AE000FFF75EFB01212046FFF751FB074D204633
:100AF0002946FFF789FB0028F9D02046FFF7A8FB1D
:100B000009B030BD00400001002401400100000197
:100B100010B5074C2046FFF79BFB04212046FFF74A
:100B200073FB0028F9D02046FFF76BFB10BD0000D7
:100B30000024014038B504460E480D490068FFF70F
:100B4000F1FA01460C48614341610021816102696B
:100B500001231A43026102690092D20702D0009A6F
:100B6000D203F8D50269520852000261816138BD92
:100B700000127A000000002000E000E010B5042020
:100B8000C043FFF789FD10BDF0B5054687B00120D1
:100B900040020090012669464E710220087100242F
:100BA000CC714102029169464E730873CC73314691
:100BB0000004FFF713FC0921CF0601223846FFF796
:100BC000B3FB01220A213846FFF7AEFB69463846DF
:100BD000FFF772FB02A93846FFF76EFB0C200121DC
:100BE0000095049001940394029405948803FFF700
:100BF00001FC0E4D69462846FFF714FE01212846E8
:100C0000FFF7CEFD1B20694608704C708E700122E4
:100C100007492846FFF7F1FD012206492846FFF75C
:100C2000ECFD6846FFF79AFB07B0F0BD00380140C5
:100C30000501050006010600014908607047000033
:100C40001C000020F8B50E4607460024074D0AE0B8
:100C5000395D2846FFF73EFE80212846FFF7AAFDB2
:100C60000028F9D0641CB442F2D3F8BD003801402A
:100C700088B0FFF783FFE1204002FFF785FF0C48B3
:100C8000FFF7DAFFFFF7FCFE0A4C2046FFF752FFA2
:100C9000FFF73EFF024608A16846FFF71FFE6846C1
:100CA000FFF756FA01466846FFF7CCFFEDE7000074
:100CB000C10C000840420F004144433D25640A0036
:100CC00070470000E40C0008000000203000000025
:100CD00004090008140D0008300000200004000082
:100CE00014090008006CDC02000000000000000095
:100CF00001020304060708090000000000000000CC
:100D000000000000000000000102030401020304CF
:040D100006070809C1
:04000005080000B53A
:00000001FF
