:020000040800F2
:1000000040050020C9000008610F0008790D0008B4
:1000100000000000000000000000000000000000E0
:100020000000000000000000000000003113000884
:100030000000000000000000B50F000801150008D6
:10004000F900000800000000F9000008F9000008AD
:10005000F9000008190C0008F9000008F900000870
:1000600000000000F9000008F9000008F90000088D
:10007000F9000008F9000008F9000008000000007D
:10008000951500080000000000000000F9000008BD
:10009000F9000008F9000008F9000008F90000085C
:1000A000F9000008F9000008F9000008DD15000853
:1000B000F90000080348854600F010FB004800479F
:1000C000591C0008400500200C4880F308880C48A3
:1000D0000168090E0B4A914205D10B480B4901609A
:1000E0000B480C4901600C4880470C480047FEE76C
:1000F000FEE7FEE7FEE7FEE7FEE700004005002022
:10010000040000001F000000181002400100000061
:10011000000001400000000005150008B5000008BF
:1001200003460B439B0703D009E008C9121F08C010
:10013000042AFAD203E00B780370401C491C521EBB
:10014000F9D27047D2B201E00270401C491EFBD2C6
:1001500070470022F6E710B513460A4604461946D2
:10016000FFF7F0FF204610BD421C0178401C00291B
:10017000FBD1801A704770B502464A40D50F400047
:100180004A00ED0740085208002814D0002A12D077
:10019000C40DD30D41020120C0055202490A520A82
:1001A000E41A091812187D34914201D3641C00E04E
:1001B0004900002C01DA002070BD0023914201D3D8
:1001C000891A0343400849000028F7D100290AD0C2
:1001D000914202D10121C90705E0914201D20121DA
:1001E00001E00121C943E005C018401900F06FF893
:1001F00070BDC217C10F504010B54018CA079623F2
:10020000002100F06CF810BDC20FD207400040087A
:100210000BD0C10D0723DB01C91840020905400AB4
:100220001143C20840071143704700200146704740
:1002300070B50446002903D000202022012310E0DD
:10024000002801D00020C043C046C0460DE025462E
:10025000D5408D4205D30D469540641B1D46954003
:1002600040191546521E002DF1DC214670BDF0B537
:100270001FB40646002082B005464024019100903C
:100280001BE0019922460F46304600F049FA049AD5
:10029000059B801A994110D310461946224600F05A
:1002A0002FFA361A8F410197224601200021009F24
:1002B00000F026FA38184D4100902046641E0028B0
:1002C000DFDC019B00982946324607B0F0BD0029CB
:1002D00004DA401C490001D140084000704770B466
:1002E0000024050C05D11024000402D1002921D0DE
:1002F0001124050E01D100020834050F01D10001BF
:10030000241D850F01D18000A41C002801DB4000C2
:10031000641C002908D020252E1B0D46F540A14065
:1003200000D001212943084301061B1B000ADB1DE5
:1003300002D5002070BC7047DB0518188018002912
:10034000F8DA401C4900F5D170BC40084000704705
:10035000F0B507460846584087B0C00F04904800E3
:100360000E46590040084908BC1A884105D2384653
:1003700031461E4617460B460246580040081043B9
:100380004CD0300D039040055900400D490D0590AB
:10039000401A0290402872DA18030121000B090567
:1003A0000843019004980092002805D00199524218
:1003B0000020884100920190029840210A1A019978
:1003C000009800F09DF905460C466B4607CB00F0FF
:1003D000B8F9C0197141039A0E0D0023D717564082
:1003E0001A467A40164344D0049A002A2DD0029A25
:1003F000012A039A15DC1205C01A9141012636051F
:10040000001C7141D20F059ED20700930192029603
:100410002A46234600F0B5F907B0F0BD384631460C
:10042000FAE71605224A0F46B218C01AB741012151
:100430000905001C4F4100187F41114618187941E9
:10044000E20F10436D19644113E0E2076D08154394
:100450006408C2071443039A01261205C01A914189
:100460003605001C7141CE07400830434908C018CA
:1004700051412A46234600F077F9CDE7FFE704987B
:1004800001224000C117121A00238B410498314603
:10049000C417381AA141EEE730B40124E4076340E1
:1004A00030BC55E730B40124E407614030BC4FE76D
:1004B0000000E0FFF0B51FB488B00B990998002444
:1004C00048400999C00F490049080991C0070B9994
:1004D0000090490049080B9109990898A6460843DD
:1004E0001CD00B990A98084318D0099801244000A1
:1004F000420D4800410D099824050003000B2043DC
:1005000009900B980003000B20430B9050181C49D6
:100510004018002201901446104605E000200146D4
:100520000DB0F0BD032801DA034600E003239C462A
:10053000C11A0AAE0AE05F0008ADED5B4F00F75B41
:100540007D430027AA187C41491C5B1E6145F2DDF2
:10055000410004AB5A522104120C0A43240C401CE3
:100560000828DFDB01980290009970460191009005
:10057000059B049A0799069800F003F9D0E700005C
:100580000DFCFFFFF0B50C465C4085B0E40FE407BE
:1005900003944C000026640859009446490802461A
:1005A0000296224321D062460A431ED06200570DB4
:1005B0004A000E032303550D012402462C4924054D
:1005C000781B1B0B360B40182343264361460090D3
:1005D0001C46501AB44103D30098401C009002E01E
:1005E000921800985B41002803DA0020014605B00C
:1005F000F0BD0020012109050746864611E064464A
:100600001D46141BB54106D36546521BB3417446C3
:1006100007430C43A646CD074008490828439218D3
:100620005B4105460D43EAD11046184313D060469E
:10063000194650407140084306D06046101AB34135
:1006400006D20122002306E000220123DB0702E09C
:100650000122D2435310009874460105381C6141B1
:10066000029C039D0019694100F07EF8BFE700007D
:10067000FD0300004A0009030123090B1B05194370
:100680000A4B10B5520D9A4202DA0020014610BD05
:10069000064B34339A4203DC9A1A00F041F810BD3D
:1006A000034BD21800F02CF810BD0000FF0300002F
:1006B000CDFBFFFF10B5002904DB0124E407404215
:1006C0008C412146002B04DB1C460123DB075242F0
:1006D000A341994200D1904210BD0000064C012573
:1006E000064E05E0E36807CC2B430C3C98471034DA
:1006F000B442F7D3FFF7E2FC1830000838300008A6
:1007000010B5202A04DB0146203A9140002010BD9C
:10071000914020239C1A0346E3401943904010BDAA
:1007200010B5202A04DB0846203AD040002110BD35
:100730000B46D340D0402024A21A914008431946CA
:1007400010BD10B5202A06DBCB170846203A104111
:10075000C1170B4306E00B461341D0402024A21AD8
:1007600091400843194610BD10B5002B08DA00244B
:10077000401C614192185B411A4301D1400840007E
:1007800010BDF0B51FB482B005460C0003D008467A
:1007900001F0B6FC02E001F0B3FC2030024600900C
:1007A00021462846FFF7ACFF049B059A04460F46F6
:1007B00018431143084314D0184610431BD0009827
:1007C00040210A1A18460599FFF7AAFF05460E466A
:1007D000009A05990498FFF793FF084305D001207C
:1007E00004E02046394607B0F0BD0020C11705439C
:1007F0000E432C43374300990E986305401A790540
:10080000E40A00220C43FD0A0A3002D5002001460A
:10081000E9E70105101969410C9C0D9D001969411A
:10082000FFF7A2FFDFE70000B0B584B0044616A0D2
:1008300041688068144A22606160A06002A800F0EC
:10084000C5F8039802990A46024301D1002222709A
:100850007D22D3004B43190D019111014143080D35
:100860000C49401800900098FFF7C3FC0A4D294638
:10087000FFF781FC60600198FFF7BBFC2946FFF79A
:100880007AFCA06004B0B0BD0100000000000000D0
:10089000000000000CFEFFFF0000204170B500F0DA
:1008A000ADFA00F06AFA702000F052F900F084FC12
:1008B000A82000F04DF900F07FFC0024204600F055
:1008C00047F900F079FC204600F042F900F074FC92
:1008D00000F0D0FD7D20C4000920C5432E462046EF
:1008E00001F01CF9761CFAD300F047FA702000F0F2
:1008F0002FF900F061FCBE2000F02AF900F05CFC4A
:10090000082000F025F900F057FC002000F020F945
:1009100000F052FC00F0AEFD204601F0FFF86D1C27
:10092000FAD370BDF0B589B00920C4060126B10321
:100930002046029100F01CFA07AF0025FD71BD8032
:1009400070030390079070040190314600F034FB6F
:1009500004942046394600F0B9F9082001F0DEF889
:100960002C4605940695049C2046029D294600F0DD
:1009700001FA0526304601F0D1F82046039900F02F
:10098000EDF907462046294600F0F2F9304601F01D
:10099000C5F8781E874105984000C41906994D1C7A
:1009A0000729DED307AD0020E871A88003980790DF
:1009B0000121019800F000FB0498294600F086F917
:1009C000082001F0ABF8E0B209B0F0BDF0B589B095
:1009D000044608A80025057007A8057006A805703C
:1009E00005A8057004A8057003A8057002A8057085
:1009F00068468580009500F0C0F9702000F0A8F8E6
:100A000000F0DAFBAC2000F0A3F800F0D5FB3320B7
:100A100000F09EF800F0D0FB284600F099F800F0B6
:100A2000CBFB00F027FD4F20C6437D20C00001F026
:100A300075F8761CF9D3454E00F09FF9712000F04F
:100A400087F800F0B9FBFFF76DFF074600F0CAFC1E
:100A50007FB200F00FFD002F06D5304601F05EF8A2
:100A6000681C642D0546E7D300F087F9712000F07B
:100A70006FF800F0A1FBFFF755FF08A908706D465D
:100A8000287000F069FCFFF74DFF07A90870687037
:100A900000F062FCFFF746FF06A90870A87000F09E
:100AA0005BFCFFF73FFF05A90870E87000F054FCFD
:100AB000FFF738FF04A90870287100F04DFCFFF71C
:100AC00031FF03A90870687100F046FCFFF72AFFA8
:100AD00002A9087000F086FC00F0CCFCFF22002088
:100AE00003E0401C06280A460FD06946095C5140C5
:100AF000082203E01946521E1306F2D04B0049B2F9
:100B00000029F7DA31214B40F4E702A80078C9B296
:100B1000814216D107A80078000406A909780902C5
:100B2000081805A90978401800092060059804A94B
:100B3000097809020007000B401803A9097840183A
:100B400001E000202060606009B0F0BDE405000015
:100B5000F0B587B005460121480304908F03019149
:100B6000480403900920C406002602971CE005AF44
:100B70000199B98004980590039800F01DFA204669
:100B80003946029F00F0A2F82046049900F0F0F8E0
:100B90002046394600F0EEF8042000F0BFFF701C3C
:100BA0006D00072E06461BD22046394600F0E0F8BD
:100BB000042000F0B3FF68B20028D8D505AF019932
:100BC000B98004980590039800F0F6F9204639465C
:100BD000029F00F07BF82046049900F0CBF8D7E79D
:100BE0002046394600F0C4F80825284600F096FF54
:100BF00005AE0020F071B0800498059001210398A3
:100C000000F0DAF92046314600F060F8284600F09E
:100C100085FF07B0F0BD000010B5012000F01EF800
:100C200000280FD0094C206800280BD0084800F09D
:100C300075FF0920C006012100F090F8012801D1BC
:100C400020688047012000F005F810BD0800002052
:100C500010270000044908607047C046024909682F
:100C60000840411E884170471404014010B5827944
:100C70001549002A1CD002680B6893430B604B682F
:100C800093434B6003790B431C6814431C60026858
:100C90008B6893438B60CB689343CB60407910287B
:100CA0000DD1886810438860C8681043C86010BDC3
:100CB00002790A43006811688143116010BD08433E
:100CC00001681143016010BD00040140F0B50A68DD
:100CD00000231C4614E003269E400768B7430760C4
:100CE0009D4007682F430760C568B543C560CD794F
:100CF0009D40C6682E43C6609B1C641C102C1CD0F3
:100D00001546E540ED07F7D00D796E1E012EE2D8AD
:100D100003269E408768B74387604E799E40876868
:100D2000374387600126A6408788B74387808E793E
:100D3000A640878837438780CDE7F0BD10B54B07C5
:100D4000DB0E0F249C40C90889004018016AA143AA
:100D500001629A40016A1143016210BD008A084095
:100D6000411E88417047808A0840411E8841704773
:100D70000185704781617047FEE7F0B585B003AF2C
:100D80000126BE807403039470040290314600F083
:100D900013F90920C50628463946FFF797FF28466C
:100DA00021462746FFF7E6FF08242046009400F07E
:100DB000B5FEB10301912846FFF7DCFF204600F0A5
:100DC000ADFE03ACA68003970298314600F0F4F81C
:100DD00028462146FFF77AFF28463946FFF7C8FF25
:100DE000009C204600F09AFE28460199FFF7C0FFBC
:100DF000204600F093FE05B0F0BD0000F0B587B0CE
:100E000003AE0124B480A703039760040290214637
:100E100000F0D2F809200190C50628463146FFF7B8
:100E200055FF28463946FFF7A5FF05AEB480670396
:100E300005970298214600F0BFF828463146FFF793
:100E400045FF28463946FFF795FF7D20C400144D25
:100E5000204600F063FE6D1CFAD3FFF78EFF712071
:100E6000FFF776FE00F0A8F9FFF75CFD18250540B6
:100E700000F0B8FA00F0FEFA182D0FD01B2000F099
:100E800011F81C2000F00EF81E2000F00BF801985D
:100E9000C543204600F042FE6D1CFAD307B0F0BDFA
:100EA0000CFEFFFFF0B581B00446FFF766FF70202F
:100EB000FFF74EFE00F080F92046FFF749FE00F0F4
:100EC0007BF900252846FFF743FE00F075F9284618
:100ED000FFF73EFE00F070F900F0CCFA7D20C5006F
:100EE0000920C643771D284600F018FE7F1CFAD360
:100EF000FFF743FF7120FFF72BFE00F05DF9FFF7CE
:100F000011FD00F029FAFFF70DFD009000F024FA22
:100F1000FFF708FD074600F065FA00F0ABFA284637
:100F200000F0FCFD761CFAD3FFF727FF7020FFF7D7
:100F30000FFE00F041F9B02004432046FFF708FE01
:100F400000F03AF90098FFF703FE00F035F9384653
:100F5000FFF7FEFD00F030F900F08CFA01B0F0BDB3
:100F60007047000070B501788278002A15D0FC2205
:100F70000A400D4BD4588D07ED0EFF26AE40B4430A
:100F800040788001C0B2A8402043D0501F200840C4
:100F9000012181400548016070BD1F2001400120F2
:100FA00088400349086070BD00E400E000E100E013
:100FB00080E100E070470000054A002903D0116875
:100FC0000143116070471168814311607047C0464A
:100FD00014100240054A002903D011680143116032
:100FE00070471168814311607047C046101002407D
:100FF000054A002903D01168014311607047116848
:10100000814311607047C04618100240054A00290C
:1010100003D011680143116070471168814311606A
:101020007047C0460C100240F0B583B00446514EE4
:1010300035462C3D28680007810F00224E484F4F4F
:10104000022902D20192074616E0032901D101923A
:1010500012E029688902090F8F1C2968C903890FCA
:1010600007D0311F0A680F211140491CFFF7E0F833
:1010700000E0434847430197276028680006000FB7
:101080004049085C23681A46C240626028684005EF
:10109000400F085CC240A2603068C00501D43A48E5
:1010A00005E02868400401D4500800E09008E060A2
:1010B000306840060125E903002801D5084601E013
:1010C00008461230029120613068C0062A4800D5D7
:1010D000184660613068800717460FD031680320DA
:1010E000014001291F4609D0316801400229029FB1
:1010F00004D03168014003291F4F00D1A7610320AC
:1011000031688903890F114613D0070431683940CB
:101110002E04B142174E19460BD0316839406E0487
:10112000B142144E029904D031683940B942124993
:1011300000D1E16131680903890F11D08004316861
:101140000140AA0491421A460AD031680140EA04DB
:101150009142029A04D0316801408142064A00D18E
:10116000226230680006054800D50198606203B02D
:10117000F0BDC0463010024000127A00006CDC0264
:1011800000093D00162A0008809FD50010B57B227B
:10119000D203084B1C6894431C6008431968014340
:1011A000196010BD03490A6803239A4302430A6089
:1011B0007047C04604100240F0B585B00920C5064E
:1011C0000126B10302912846FFF7D2FD03A8019042
:1011D0000024C4718480770303977004009631461D
:1011E000FFF7EAFE28460199FFF770FD0826304612
:1011F00000F094FC28460299FFF7BCFD304600F051
:101200008DFC264628463946FFF7A8FD002802D067
:10121000741C642EF5D3642E02D1002005B0F0BDFD
:1012200028460299FFF7A4FD082000F077FC0098FB
:1012300005B0F0BDB0B505461E4C0221204600F0B9
:101240003BF80028F9D02046294600F06FF801212C
:10125000204600F031F80028F9D0204600F05AF876
:10126000B0BDC0464A1E91418901028840239A437D
:10127000511801807047000010B50D4988420CD00C
:101280000C49884212D101210C032046FFF7BEFE13
:1012900000212046FFF7BAFE10BD01218C03204635
:1012A000FFF798FE00212046FFF794FE10BDC046D0
:1012B000003800400030014000890840411E88414C
:1012C00070470000C1229201038813400A881A4324
:1012D000CB891343CA881A430B8913434A891A439B
:1012E0008B89134303808288084B13408A881A43F2
:1012F00082800A8A0282028804239A434988114321
:101300000180818B024A0A4082837047FFF000000F
:10131000FFF70000007B70478288034B13408380F7
:1013200082880A4382807047FFEF00000173704794
:1013300070470000B0B5FC220A40064BD45889071C
:10134000090F0F258D40AC43D4508840D15801433C
:10135000D150B0BD08000140F0B587B00920C506E6
:101360000126B10303912846FFF702FD08200190F2
:1013700000F0D4FB05AFBE807403059402947004A2
:1013800004903146FFF718FE28463946FFF79EFCC9
:1013900028462146FFF7ECFC019C204600F0BEFBEE
:1013A0002846039F3946FFF7E5FC204600F0B6FBD0
:1013B00028463946FFF7DCFC204600F0AFFB05AFBE
:1013C0000020F871B8800298059004983146FFF724
:1013D000F3FD28463946FFF779FC204600F09EFBD6
:1013E00007B0F0BDF0B587B00920C4060126B103EF
:1013F00002912046FFF7BCFC0820049000F08EFB11
:1014000005AFBE80750305950195700403903146C4
:10141000FFF7D2FD20463946FFF758FC2046294603
:10142000FFF7A8FC049D284600F078FB2046029FA9
:101430003946FFF79FFC284600F070FB20463946EE
:10144000FFF796FC284600F069FB05AFBE80019DC2
:10145000059503983146FFF7AFFD20463946FFF763
:1014600035FC20462946FFF783FC049800F056FB24
:1014700007B0F0BDF0B585B003AF0125BD806C03AA
:101480000394680402902946FFF796FD0920C606DA
:1014900030463946FFF71AFC304621462746FFF70B
:1014A00067FC08242046019400F038FBA90330466D
:1014B000FFF760FC204600F031FB03ACA5800397EA
:1014C00002982946FFF778FD30462146FFF7FEFBDC
:1014D00030463946FFF74EFC019800F01FFB05B07F
:1014E000F0BD0000001F41424141880003490A68E5
:1014F00004239A43101808607047C04610E000E0CB
:1015000070470000B0B51F4C2068012528432060BB
:1015100060681D490140616020681C4901402160EC
:10152000A8042168814321603F2000046168814351
:101530006160E06A0F218843E062FF205430216B34
:1015400081432163606BA84360630020A060104961
:1015500011220A6061686160616861600521C904E7
:10156000FFF714FE280621680143216020688001EE
:10157000FCD50220FFF716FE60680C210140082907
:10158000FAD1B0BD001002400CB8FF08FFFFF6FE14
:101590000020024010B5084C0121204600F013F84D
:1015A000002804D005480068002800D080470121A9
:1015B000204600F005F810BD000400400C0000209B
:1015C000C94301827047028A0A40531E9A418089AA
:1015D0000840411E884110407047000010B5594C2A
:1015E0000A49204600F025F8002809D0204600F0DE
:1015F000ADF807490968002906D0C0B2884710BD78
:101600004021204600F006F810BDC0460501050047
:1016100010000020016270474A1E914102680123B8
:101620009A43511801607047C0690840411E8841C3
:1016300070470A0AD2B2022A03D0012A03D1024615
:1016400003E0021D01E002460832CBB21268DA4024
:10165000090CC369CB40134001201840704710B5F6
:10166000CCB20123090AC9B2032903D0022902D14D
:10167000001D00E00830A340002A03D00168194390
:10168000016010BD01689943016010BDF0B58BB0D9
:101690000D46044600680121009188432060032024
:1016A000010362688A43A968114361602168224A84
:1016B0000A4069681143EA680A43296911432160B5
:1016C0000002A168814368690843A06001A8FFF790
:1016D000ABFC1A48844208D01948844208D0194803
:1016E000844208D101A8183007E001A81C3004E0AA
:1016F00001A8203001E001A8083006682068000435
:1017000000D576002F6830463946FEF791FD4743F5
:10171000F11B009AD2032B685B08994200D3401C4E
:101720002168114204D0084901400007400F4018C9
:10173000A0810BB0F0BDC046F3E9FFFF00440040BC
:101740000048004000380140F0FF0000818C034851
:1017500008407047014A0A4002857047FF010000B7
:1017600070B586B01449086004AE0220F071002400
:10177000B4800125049568042946FFF71DFC092063
:10178000C0063146FFF7A2FA02A8857129038180BD
:1017900001AEB570052131800295FFF767FA30463A
:1017A000FFF7E0FB20462146FFF7C4FD06B070BD01
:1017B000014908607047C0460800002010B582B09B
:1017C0006C460121A180042000904804FFF7F4FB3F
:1017D0000920C0062146FFF779FA00F04DF902B062
:1017E00010BD10B5044600F038F90920C0060421E8
:1017F000FFF7BEFA2046FFF71DFD00F027F910BDE8
:1018000010B5044600F029F90920C0060421FFF7AD
:10181000B1FA2046FFF70EFD00F018F910BD0000E8
:1018200010B582B06C460121A1800220009088048E
:10183000FFF7C2FB0B482146FFF748FA02B010BD84
:1018400010B5084C02212046FFF788FA0221002833
:1018500003D02046FFF78CFA10BD2046FFF78AFA26
:1018600010BDC0460004004870B582B0FFF7A6FF67
:101870006D460121A980082400944804FFF79CFBD1
:101880000920C60630462946FFF720FA3046214691
:10189000FFF76EFA404800F041F930462146FFF765
:1018A00069FAAE20FFF79DFF00242046FFF799FF5D
:1018B0001020FFF796FF40263046FFF792FF812069
:1018C000FFF78FFFCF20FFF78CFFA120FFF789FFE5
:1018D000C820FFF786FFA6252846FFF782FFA8202D
:1018E000FFF77FFF3F20FFF77CFFD320FFF779FF53
:1018F0002046FFF776FFD520FFF773FF8020FFF724
:1019000070FFD920FFF76DFFF120FFF76AFFDA20A3
:10191000FFF767FF1220FFF764FFDB20FFF761FF8F
:101920003046FFF75EFF2020FFF75BFF0220FFF746
:1019300058FF8D20FFF755FF1420FFF752FFA4201A
:10194000FFF74FFF2846FFF74CFFAF20FFF749FF97
:10195000254628465038C0B2FFF743FF0120FFF765
:1019600040FF1020FFF73DFF26460020FFF748FF0D
:10197000701C46B2002EF8D5681CE9B2072905464E
:10198000E7D3B020FFF72DFF1020FFF72AFF01203B
:10199000FFF727FF02B070BD60EA0000F0B585B028
:1019A00003284FD8002A4DD01478002C4AD00F4677
:1019B000400001464F395038C0B20290C8B2019081
:1019C00002E01478002C3DD060B20028F9D4FDB2BA
:1019D000782D37D804920298FFF703FF2E091036AE
:1019E0003046FFF7FEFE0E2003973840471C38466E
:1019F000FFF7F7FE0025202C01D8284604E07F20C1
:101A000040022101081880B20F490C18605DFFF7F1
:101A1000F7FE6D1C082DF9D10198FFF7E2FE304664
:101A2000FFF7DFFE3846FFF7DCFE08340025605D77
:101A3000FFF7E6FE6D1C082DF9D1049A521C039F96
:101A40000837BEE705B0F0BD262A000880B509209A
:101A5000C0061021FFF78EF980BD10B50920C4061D
:101A600010212046FFF784F910212046FFF77BF96B
:101A70000028F9D110BD0000F0B58BB0012460043E
:101A80002146FFF799FA200300902146FFF7B0FAAC
:101A90001F480990E02008900920C60608A9304692
:101AA000FFF714F90521002730463A46FFF746F9BB
:101AB000062130463A46FFF741F9072130463A46BB
:101AC000FFF73CF9FF20023007901027069706A980
:101AD0003046FFF7FBF830463946FFF74BF90D4823
:101AE00001AE3146ACC8ACC1008808800A4F384608
:101AF000FFF7C2FB38463146FFF7E4FB3846009952
:101B0000FFF70AFC38462146FFF7ACFB0BB0F0BDEF
:101B100002010002042A00080030014010B504460A
:101B20000B4800680B49FEF783FB60430A49486095
:101B3000002088600B68012213430B60074B0C6880
:101B40001C40012CFBD00B6893430B60886010BDD8
:101B50000000002000127A0010E000E00100010007
:101B600080B50420C043FFF7BDFC80BDF0B58BB04D
:101B7000029005A901910026CE7181204000888045
:101B800003AFFE71B880012460020590A0020390AB
:101B900060042146FFF710FA0921CD0628462246A7
:101BA000FFF7CCF80A2128462246FFF7C7F8284657
:101BB0000199FFF78BF828463946FFF787F8089612
:101BC0000696029805900A9607960C200990A003A5
:101BD0002146FFF70DFA1F4D05A92846FFF756FDD0
:101BE00028462146FFF718FD05AEB4701B20308053
:101BF000074928462246FFF732FD06492846224675
:101C0000FFF72DFD3046FFF7ADF90BB0F0BDC04634
:101C10000501050006010600014908607047C0463D
:101C200010000020F0B581B0002910D00C46054608
:101C30000027084EE95D3046FFF78CFD80213046D5
:101C4000FFF7F2FC0028F9D07F1CA742F2D101B0C7
:101C5000F0BDC04600380140FFF782FFE12040029E
:101C6000FFF784FFFFF7DCFDFFF7FEFD0020FFF725
:101C700077FDFEF713FE00F0CFF800F033F800F028
:101C80003BF800F01FF800F0A9F800F0E9F900F0C7
:101C90008BF900F05BF900F001FA00F0EBF800F0CE
:101CA00093F97D20C000FFF739FF012000F0BCF858
:101CB000F7E700000A4800687047C046084800215E
:101CC0000160704780B50248FFF772FD80BDC046D5
:101CD000D51C000802480168491C01607047C046D5
:101CE00014000020704710B50446FEF73DFA014687
:101CF0002046FFF797FF10BD7047F0B585B0009301
:101D000015460E460746002004900390029001906D
:101D1000002F0AD0002401AA20462146FFF73EFEEC
:101D2000204621463A46FFF739FE002E0BD001240B
:101D3000002701AA20463946FFF730FE20463946E3
:101D40003246FFF72BFE002D0BD00224002601AAFD
:101D500020463146FFF722FE204631462A46FFF74D
:101D60001DFE009E002E0BD00324002501AA204654
:101D70002946FFF713FE204629463246FFF70EFE9E
:101D800005B0F0BD80B5FFF747FF80BD80B5FFF718
:101D900057FD80BDB0B584B0044601AD2846FEF7BE
:101DA00043FD00202978002903D00399216004B065
:101DB000B0BDC04304B0B0BDB0B584B0044601AD01
:101DC0002846FEF731FD00202978002903D002992A
:101DD000216004B0B0BDC04304B0B0BD7047000086
:101DE000F0B50024224D2601AF57002F06D5661C02
:101DF000092C3446F7D3FF24E0B2F0BDAD19E881D9
:101E0000A8816B60AA60002901D03F2000E07F20FC
:101E1000C0432870E0B2F0BD002015490246885446
:101E20001032A02AFBD17047F0B581B00025104ECA
:101E30002F46009005E0091AE18110357F1CA02D86
:101E400014D071570029F8D57419E1898142F2D86C
:101E50006168A268F8B29047705D400602D4002025
:101E6000705501E0A089E0810098E6E701B0F0BD7F
:101E700018000020B0B50948FFF784FF19200001C1
:101E80000124074A002521462B46FFF7A9FF3C20E5
:101E9000044A21462B46FFF7A3FFB0BDD51E00081C
:101EA000F51E0008A91E0008B0B5A0B06846802144
:101EB000FEF74FF90D4D2A78002A09D06C460C49DF
:101EC0002046FEF72DF9002028702046FFF70BFF73
:101ED00020B0B0BD10B505490B785AB2002A03D422
:101EE000034CE054501C087010BDC046B8000020E0
:101EF000BC00002010B5FFF7DDFE0446FFF7DEFE54
:101F0000012C03D0022C04D109A000E001A0FFF7AE
:101F1000EAFE10BD5441534B5B494E5055545D2071
:101F200073696E676C6520636C69636B0A000000FF
:101F30005441534B5B494E5055545D20646F75625C
:101F40006C6520636C69636B0A00000080B57D20BE
:101F5000C0000121024A0023FFF742FF80BDC046B6
:101F6000651F000810B584B008480268511C016064
:101F70006C4607A1204600F0AFF808A000222146D9
:101F80001346FFF7BAFE04B010BDC0463C01002066
:101F9000436F756E743D2564000000005441534B3F
:101FA0005B4C43445D00000080B57D20C0000121F2
:101FB000024A0023FFF714FF80BDC046C11F00087E
:101FC00080B5FFF7E3FE80BD80B503480121034AD9
:101FD0000023FFF705FF80BDDC050000E11F0008BE
:101FE00010B58AB001A8FFF7E7FE00280FD10198CD
:101FF000FEF70AF902460B4602AC11A1204600F09A
:102000006BF80020014622460346FFF776FE68463D
:10201000FFF7C0FE002801D00AB010BD0098FEF7FF
:10202000F3F802460B4602AC09A1204600F054F832
:102030000020014602462346FFF75FFE0AB010BDAE
:1020400074656D703A20252E316620430000000033
:1020500068756D693A20252E31662025250000001F
:1020600080B57D2000010121024A0023FFF7B8FE60
:1020700080BDC0467920000880B502A0FFF733FE7E
:1020800080BDC0465461736B5B544553545D205210
:10209000756E6E696E672E2E2E0A000080B57D204B
:1020A000C0000121024A0023FFF79AFE80BDC0460E
:1020B000B520000880B502A0FFF715FE80BDC04620
:1020C0005461736B5B554152545D2052756E6E695D
:1020D0006E672E2E2E0A00000FB410B504A9074B10
:1020E00002AA039800F0ECF8044602A9002000F0D0
:1020F00083FC204610BC08BC04B01847F92900082E
:102100002021020C01D010211046020A01D01046F5
:102110000839020901D01046091F820801D0104673
:10212000891E420801D0881E7047081A704702E0D5
:1021300008C8121F08C1002AFAD170477047002052
:1021400001E001C1121F002AFBD17047F0B51FB496
:1021500086B00998089A030D0021024314D0514813
:10216000514A1818504305141198012810981AD094
:10217000281A401C00264D4F4D49009601910490AD
:10218000002812DA444211E01198012449A30128E1
:1021900001D11098C1430698119A84600360C2600F
:1021A00041600BB0F0BD4042E4E704462105002049
:1021B0003F4A001C51410391029012E0E00707D012
:1021C00032463B4601990098FEF774F90191009060
:1021D00032463B4610461946FEF76CF906460F4656
:1021E0006410002CEAD10498039B0028029A0999F4
:1021F000089806DAFEF75EF9019B009AFEF75AF995
:1022000005E0FEF7BFF9019B009AFEF7BBF9044613
:102210000E460022284BFEF74DFA03D80020C0439B
:10222000014607E00022254B20463146FEF790F894
:10223000FEF720FA102409E0002C0ADB0A22002312
:10224000FEF715F8079B30321A55641E02460A4302
:10225000F2D11122641C079B121B1C19119B012B2C
:1022600003D0012308430ED10AE0084304D0112013
:1022700010900020119077E71098151A6D1E0BE052
:102280001098824202DD00236D1C03E0824201DAD5
:1022900000236D1E002BEED0069811998260C1605C
:1022A00030C07EE701FCFFFF104D0000000014402D
:1022B0000000F03F300000000000F0430000E03F6D
:1022C000FFB597B00646002518E2252877D10024EF
:1022D0002746FD49049400E00443761C327801202F
:1022E000203A90400842F7D130782A280ED00222B6
:1022F000307801463039092916D804990A23594300
:10230000303940181443761C0490F1E7189802C83D
:1023100004911890002904DA012040030443484244
:10232000049002200443761C30782E2814D1042017
:1023300004437078761C2A2809D11898761C80C826
:10234000189009E00A214F43303FC719761C3078B6
:10235000014630390929F5D930786C2810D006DCCF
:102360004C281AD068280ED06A2817D104E07428A7
:1023700013D07A2812D110E00120400504430CE06C
:102380000121090501E0032109050C43717881420F
:1023900003D1012000052418761C761C307811909A
:1023A00066280BD013DC58287DD009DC00287BD0B0
:1023B0004528F6D04628F4D047281AD1A5E118E0E0
:1023C000632835D0642870D0652812D19DE170282B
:1023D0006CD008DC6728F1D069287BD06E280DD03E
:1023E0006F2806D1BAE073282ED0752871D07828CE
:1023F00059D01A9A199990476D1C7EE16002400FDE
:10240000022809D003280DD00428189801680DD09F
:102410000D60001D189070E11898EA1701680D60B2
:102420004A60F6E7189801680D80F2E70D70F0E752
:1024300018986A4601781172001D18900020507299
:1024400002A80090012005E0189802C8189000200A
:102450000091C04361070DD5002101E00199491C9D
:102460000191B94212DA8142F8DB009A515C0029ED
:10247000F4D10BE0002101E00199491C0191814256
:10248000FADB019A0099895C0029F5D10199049839
:102490001A9B471A21463846199A00F097FA019973
:1024A000401945180BE04FE02CE113E04EE0009896
:1024B00000990078491C00911A9A1999904701983F
:1024C000401E0190401CF2D1214638461A9B199AB1
:1024D00010E137E00A200021009001916002410FD5
:1024E000022907D0189A01CA1892C21794460329E4
:1024F00008D00AE01898C01DC108C90005C9189184
:10250000944607E000B2C2179446042902D140B2B3
:10251000C1178C4600226146944506DA0A4600211E
:10252000404291418C462D2102E0210504D52B210A
:102530006A461173012103E0E10701D02021F7E78A
:10254000029155E00A200AE0102008E010200090D7
:102550000021042004430191082703E00820002102
:10256000019100906002410F022907D0189A01CA18
:10257000189200229446032908D008E01898C01D3C
:10258000C108C90005C91891944603E080B2042926
:1025900000D1C0B200210291210729D511997029DB
:1025A00006D0009A1021019B4A401A4305D00EE044
:1025B00040216A461173012108E06146014306D0BB
:1025C00030216A4611731199517302210291009AC8
:1025D0000821019B4A401A430AD16146014301D1B7
:1025E000610705D530216A46117301217F1E0291D2
:1025F0001199582904D035A10E910DA90D910DE026
:1026000037A1F9E76146019B009AFDF730FE0E9B6A
:102610008C469B5C0D9A521E0D92137061460143CD
:10262000F0D10D9805A9081A20300190600703D554
:1026300001200004844300E001270198874201DD66
:10264000381A00E0002001990090411802980918FA
:102650000498401A0490E00306D421461A9B199A64
:10266000049800F0B3F94519002706E003A81A9A68
:10267000C05D199990476D1C7F1C02988742F5DB5D
:10268000E0030CD521461A9B199A049800F09EF994
:10269000451904E01A9A3020199990476D1C009949
:1026A000481E00900029F5DC08E00D980D9900788F
:1026B000491C0D911A9A199990476D1C0199481E51
:1026C00001900029F1DC63E1092801003031323347
:1026D000343536373839616263646566000000005E
:1026E0003031323334353637383941424344454648
:1026F0000000000000F05AF94519761C30780028D7
:1027000000D0E2E528461BB0F0BD600700D40627E4
:102710001898C01DC108C90048680A680831C30F6D
:10272000DB071891190001D09CA108E0210501D513
:102730009BA104E0E10701D09AA100E09AA1430027
:1027400011985B08109165280CD006DC452809D04B
:1027500046281DD0472841D141E0662818D0672877
:102760003CD13CE00021112F01DB112000E0781C5E
:102770000191009008A911A8FFF7E8FC13990591B1
:102780000021119A15927F1C12980197009150E038
:102790000120C00703900120019008A9009711A80B
:1027A000FFF7D4FC139A149905920022119B009212
:1027B00012981593059A0192002901D0104602E063
:1027C000791C40180190381A01D5019804E0404264
:1027D000401E0090781C0190C01B029043E0012F26
:1027E00000DA01270021112F01DD112000E0384619
:1027F0000191009008A911A8FFF7A8FC1399059171
:10280000119A0021129815920091019721070CD47A
:102810000599B94201DB019900E00191012904DD2C
:10282000159A491E515C302906D0B84201DA011DC3
:1028300005DA0121029115E00199491EEDE7002812
:1028400005DC0099411800910199091A03E0019AE9
:10285000411C914200DD01910099401A401C0290F8
:102860000120C0070390200706D4029901988142F5
:1028700002DB0020C043029000206946C87707AF02
:10288000012103980337C907884224D00220119000
:102890002B201290039800280CDA404203902D2040
:1028A000129007E00A210398FDF7C2FC30317F1E29
:1028B000039039701199481E11900029F2DC039899
:1028C0000028EFD1791E1298087030782021084036
:1028D0004530BF1E387006A8C01BC01D039010985D
:1028E0000078002800D00120019941180298C017F3
:1028F0000918039809180498401A401E0490E00330
:1029000006D421461A9B199A049800F05FF84519DD
:1029100010980078002803D01A9A199990476D1CD6
:10292000E00324D521461A9B199A049800F04EF82A
:1029300045191CE00098002807DB0099059888429B
:1029400003DD1598405C199901E0199930201A9A15
:10295000904700986D1C401C00900298401E029009
:10296000002804D11A9A2E20199990476D1C0199BC
:10297000481E01900029DDDC05E038781A9A7F1C9A
:10298000199990476D1C0399481E03900029F4DCA7
:1029900021461A9B199A0498ACE600002D0000000D
:1029A0002B0000002000000000000000F8B50446E5
:1029B00000251E461746880404D405E03946202029
:1029C000B0476D1C641EF9D52846F8BDFFB5044616
:1029D000002581B01E46C80301D5302700E020271E
:1029E000880404D505E038460399B0476D1C641E81
:1029F000F9D5284605B0F0BD0A68531C0B6010706D
:102A000070470000000004010007020001000002FE
:102A1000180000000700000000000102030401028A
:102A20000304060708090000000000000000000081
:102A3000000000000000000000F80000000000009E
:102A400000333000000000100C06100C06000000DF
:102A500000000000000040C07840C0784000043F03
:102A600004043F040400007088FC083000000018D3
:102A700020FF211E0000F008F000E01800000021F7
:102A80001C031E211E0000F00888700000001E219B
:102A900023241927211010160E000000000000004A
:102AA000000000000000000000E018040200000028
:102AB00000071820400000020418E0000000004059
:102AC000201807000000404080F0804040000202D3
:102AD000010F01020200000000F0000000000101EF
:102AE000011F01010100000000000000000080B093
:102AF0007000000000000000000000000000000165
:102B0000010101010101000000000000000000308F
:102B10003000000000000000000080601804006029
:102B200018060100000000E010080810E000000F87
:102B3000102020100F00001010F8000000000020EE
:102B4000203F202000000070080808887000003036
:102B500028242221300000300888884830000018DE
:102B6000202020110E000000C02010F800000007F7
:102B70000424243F240000F808888808080000196D
:102B8000212020110E0000E0108888180000000F9E
:102B9000112020110E0000380808C8380800000075
:102BA000003F000000000070880808887000001CCA
:102BB000222121221C0000E010080810E000000083
:102BC000312222110F00000000C0C00000000000F0
:102BD0000030300000000000008000000000000015
:102BE000806000000000000080402010080000010C
:102BF00002040810200040404040404040000404CF
:102C00000404040404000008102040800000002098
:102C1000100804020100007048080808F0000000D5
:102C2000003036010000C030C828E810E000071866
:102C3000272423140B000000C038E0000000203CD3
:102C400023020227382008F8888888700000203F77
:102C5000202020110E00C03008080808380007188E
:102C600020202010080008F808080810E000203F85
:102C7000202020100F0008F88888E8081000203F66
:102C800020202320180008F88888E8081000203F3A
:102C9000200003000000C0300808083800000718B2
:102CA0002020221E020008F808000008F808203F33
:102CB000210101213F20000808F808080000002039
:102CC000203F2020000000000808F8080800C0800D
:102CD00080807F00000008F888C028180800203F86
:102CE00020012638200008F8080000000000203FDE
:102CF00020202020300008F8F800F8F80800203FD5
:102D0000003F003F200008F830C00008F808203FCE
:102D1000200007183F00E01008080810E0000F101E
:102D2000202020100F0008F808080808F000203FB5
:102D3000210101010000E01008080810E0000F1850
:102D4000242438504F0008F8888888887000203F75
:102D50002000030C30200070880808083800003874
:102D6000202121221C00180808F80808180000007B
:102D7000203F2000000008F808000008F808001FA5
:102D8000202020201F000878880000C83808000094
:102D900007380E010000F80800F80008F800033CAE
:102DA0000700073C03000818688080681808203076
:102DB0002C03032C30200838C800C8380800000055
:102DC000203F2000000010080808C83808002038FC
:102DD000262120201800000000FE02020200000050
:102DE000007F40404000000C30C0000000000000A8
:102DF00000010638C00000020202FE000000004090
:102E000040407F00000000000402020204000000B5
:102E100000000000000000000000000000008080B2
:102E2000808080808080000202040000000000009A
:102E30000000000000000000808080800000001979
:102E4000242222223F2008F8008080000000003F5A
:102E5000112020110E000000008080800000000E74
:102E6000112020201100000000808088F800000E52
:102E7000112020103F200000808080800000001F73
:102E8000222222221300008080F0888888180020E7
:102E9000203F202000000000808080808000006BA8
:102EA00094949493600008F8008080800000203F94
:102EB000210000203F2000809898000000000020A2
:102EC000203F20200000000000809898000000C0F3
:102ED0008080807F000008F8000080808000203F14
:102EE00024022D302000000808F800000000002017
:102EF000203F202000008080808080808000203F54
:102F000020003F20003F8080008080800000203F24
:102F1000210000203F200000808080800000001FF2
:102F2000202020201F00808000808000000080FF83
:102F3000A12020110E000000008080808000000E83
:102F4000112020A0FF8080808000808080002020D1
:102F50003F2120000100000080808080800000333D
:102F6000242424241900008080E0808000000000D8
:102F7000001F202000008080000000808000001FD3
:102F8000202020103F208080800000808080000171
:102F90000E300806010080800080008080800F30A5
:102FA0000C030C300F000080800080808000002027
:102FB000312E0E3120008080800000808080808152
:102FC0008E701806010000808080808080000021C3
:102FD000302C2221300000000000807C0202000022
:102FE0000000003F404000000000FF000000000023
:102FF0000000FF0000000002027C80000000004092
:10300000403F00000000000601010202040400002D
:103010000000000000000000383000080000002020
:10302000040000002E2100083C30000808000020A9
:0C303000380500003E210008006CDC02A6
:04000005080000C926
:00000001FF
