:020000040800F2
:1000000020040020CD000008AB020008A90200086F
:1000100000000000000000000000000000000000E0
:10002000000000000000000000000000490400087B
:100030000000000000000000AD0200082D050008CF
:10004000FD00000800000000FD000008FD000008A1
:10005000FD00000899010008FD000008FD000008EF
:1000600000000000FD000008FD000008FD00000881
:10007000FD000008FD000008FD0000080000000071
:10008000910500080000000000000000FD000008CD
:10009000FD000008FD000008FD000008FD0000084C
:1000A000FD000008FD000008FD000008DD05000857
:1000B000FD0000080448854600F05CF80048004751
:1000C000E1090008C046C046200400200C4880F327
:1000D00008880C480168090E0B4A914205D10B486B
:1000E0000B4901600B480C4901600C4880470C48E3
:1000F0000047FEE7FEE7FEE7FEE7FEE7FEE700005B
:1001000020040020040000001F000000181002401E
:10011000010000000000014000000000310500085F
:10012000B500000830B50B4601460020202201240E
:1001300009E00D46D5409D4205D31D469540491B1B
:100140002546954040191546521E002DF1DC30BD64
:1001500003460B439B0703D009E008C9121F08C0E0
:10016000042AFAD203E00B780370401C491C521E8B
:10017000F9D27047064C0125064E05E0E36807CC2E
:100180002B430C3C98471034B442F7D3FFF796FF4B
:10019000741000089410000810B5012000F020F839
:1001A00000280FD0094C206800280BD0084800F028
:1001B000EDFB09200121C00600F064F8002801D100
:1001C00020688047012000F005F810BD14000020D1
:1001D00010270000014948617047000000040140F9
:1001E000034A0146526900200A4200D001207047AC
:1001F00000040140F0B50022012423460D6893401D
:100200001D409D422AD10D79012D01D0022D12D120
:10021000876855000326AE40B74387604E79AE40ED
:1002200085682E43866085889D43858085888B7987
:1002300093401D438580066855000323AB409E43D1
:1002400006600E790768AE403E430660C6689E436E
:10025000C660CB79AB40C5682B43C360521C102AE3
:10026000CBD3F0BD4B07DB0E9A40C90810B589000F
:100270000818016A0F249C40A1430162016A1143DE
:10028000016210BD0246128A00200A4200D00120FD
:1002900070470246928A00200A4200D0012070472F
:1002A0000185704781617047FEE770477047000025
:1002B000044A0029516901D0014300E081435161A2
:1002C0007047000000100240044A0029116901D063
:1002D000014300E0814311617047000000100240BB
:1002E000044A0029916901D0014300E081439161F2
:1002F0007047000000100240044A0029D16801D074
:10030000014300E08143D1607047000000100240CB
:1003100010B5054A53687B24E403A3435360536834
:1003200008430343536010BD00100240034A516864
:1003300089088900014351607047000000100240A5
:1003400070B50B4C05460221204600F03DF8002810
:10035000F9D02946204600F075F80121204600F02A
:1003600033F80028F9D0204600F060F870BD000096
:100370000030014040220029018801D0114300E0F3
:1003800091430180704700000D4910B5884209D1A2
:10039000841401212046FFF7AFFF00212046FFF71C
:1003A000ABFF10BD07498842FBD104140121204650
:1003B000FFF78AFF00212046FFF786FF10BD0000EF
:1003C00000300140003800400246128900200A42F5
:1003D00000D001207047000030B50388C12292018F
:1003E00013400A88CC890D892243CC882C432243B0
:1003F0004C8922438C8922431A4302808288094B0C
:100400001A408B88134383800A8A0282028804235D
:1004100049889A4311430180818B034A11408183AB
:1004200030BD0000FFF00000FFF70000007B7047C8
:100430008288034B1A40828082880A4382807047F8
:10044000FFEF000001737047704700007CB500208B
:100450002E4C01900090216801221204114321606A
:10046000520005210903236813400093019B5B1C84
:100470000193009B002B02D1019B8B42F3D1216899
:1004800001258B031121224A2D06002B23DA01209E
:1004900000901160606860606068606060687F21E3
:1004A000C903884360606068D100084360602068C9
:1004B0002843206020688001FCD5606880088000A7
:1004C0006060606802210843606060680007800F18
:1004D0000228FAD17CBD009011606068606060689D
:1004E00060600521C9040020FFF712FF206828433F
:1004F000206020688001FCD50220FFF717FF6068AC
:100500000007800F0228FAD17CBD000000100240D5
:1005100000200240042204490428086902D09043C4
:10052000086170471043FBE700E000E070470000FF
:1005300010B5144801680122114301604168124A54
:10054000114041600168114A1140016001680122B7
:1005500092049143016041683F221204914341603B
:10056000C16A09090901C162016BFF22543291433A
:100570000163416B49084900416300218160FFF735
:1005800065FF10BD001002400CB8FF08FFFFF6FE2B
:1005900010B5084C0121204600F013F8002804D0C3
:1005A00005480168002900D088470121204600F055
:1005B00005F810BD0004004018000020C943018266
:1005C00070470246138A002092890B400A40002B94
:1005D00002D0002A00D001207047000010B50C4C5A
:1005E0000A49204600F01AF8002809D0204600F0F9
:1005F00031F80849C0B20968002900D0884710BD09
:100600004021204600F008F810BD0000050105005B
:10061000003801401C0000200162704730B50A0418
:10062000130E0122144600258C40012B0ED0022B04
:100630000ED08368090C2340C0698A401040002B0B
:1006400002D0002800D00125284630BD0368F1E71C
:100650004368EFE7808CC005C00D704702E008C812
:10066000121F08C1002AFAD170477047002001E02C
:1006700001C1121F002AFBD170471CB50121684639
:10068000017100214171042000900121C003FFF796
:100690000FFE09206946C006FFF7ACFD00F02AF9FD
:1006A0001CBD10B5044600F016F909200421C0064F
:1006B000FFF7F6FD2046FFF743FE00F005F910BDF9
:1006C00010B5044600F007F909200421C006FFF721
:1006D000E9FD2046FFF734FE00F0F6F810BD0000FB
:1006E0001CB5012168460171002141711020009064
:1006F00001214003FFF7DCFD0924E406694620469A
:10070000FFF778FD10212046FFF7CAFD2D4800F0C5
:100710003DF910212046FFF7C5FDAE20FFF7C1FFD0
:100720000020FFF7BEFF1020FFF7BBFF4020FFF7C0
:10073000B8FF8120FFF7B5FFCF20FFF7B2FFA12060
:10074000FFF7AFFFC820FFF7ACFFA620FFF7A9FF18
:10075000A820FFF7A6FF3F20FFF7A3FFD320FFF756
:10076000A0FF0020FFF79DFFD520FFF79AFF802014
:10077000FFF797FFD920FFF794FFF120FFF791FFD4
:10078000DA20FFF78EFF1220FFF78BFFDB20FFF749
:1007900088FF4020FFF785FF2020FFF782FF02201F
:1007A000FFF77FFF8D20FFF77CFF1420FFF779FF15
:1007B000A420FFF776FFA620FFF773FFAF20FFF717
:1007C00070FF1CBD60EA000070B500242046B03008
:1007D000C0B2FFF766FF0120FFF763FF1020FFF7AD
:1007E00060FF00250020FFF76BFF6D1CEDB2802D30
:1007F000F8D3641CE4B2082CE8D370BD10B5FFF741
:100800003CFFFFF76DFFFFF7DFFF0021084600F018
:1008100001F810BD10B5B0300C46C0B2FFF741FF73
:1008200020091030FFF73DFF2007000F012108438A
:10083000FFF737FF10BD70B50B46002A14D0032810
:1008400012D84006060E14460BE0802A09D21D4637
:100850000835802D08D83146184600F007F8EBB26D
:10086000641C2278002AF0D170BD0000F7B50F4655
:10087000202A05D91001FF38FF38023885B200E080
:1008800000250098C1B2F8B2FFF7C4FF0D4E002456
:100890002819305CFFF714FF641CE4B2082CF7D36E
:1008A00000987F1CC1B2F8B2FFF7B4FF00242819EA
:1008B0008019007AFFF704FF641CE4B2082CF6D319
:1008C000FEBD0000820A000810B509201021C006F4
:1008D000FFF7E8FC10BD10B50924E40610212046FE
:1008E000FFF7DEFC10212046FFF7D3FC0028F9D1EA
:1008F00010BD000070B501218AB04804FFF7D8FC94
:1009000001210D032846FFF7EBFC1E4C092603CC02
:1009100006910590F60605A93046083CFFF76AFCEB
:10092000002205213046FFF79DFC002206213046BB
:10093000FFF798FC002207213046FFF793FC0834AC
:1009400003CC0891079007A93046FFF753FC10210C
:100950003046FFF7A7FC142221466846FFF7F8FB54
:10096000094C2046FFF710FD69462046FFF734FD8D
:1009700029462046FFF75CFD01212046FFF7FAFCDF
:100980000AB070BD600A00080030014038B5044666
:100990000E480D490068FFF7C5FB01460C4861434E
:1009A000416100218161026901231A4302610269E8
:1009B0000092D20702D0009AD203F8D502695208F9
:1009C00052000261816138BD00127A0000000020EF
:1009D00000E000E010B50420C043FFF79BFD10BD10
:1009E000FFF7F8FFFFF70AFF0F4C651000210FA279
:1009F0000846FFF720FF10A200210120FFF71BFF90
:100A000011A200210220FFF716FF12A200210320ED
:100A1000FFF711FF2046FFF7B9FFFFF7D5FE284685
:100A2000FFF7B4FFE2E7000080841E00303132336C
:100A3000343536373839000061626364656667684B
:100A400069414243444500007B7D5B5D282921408C
:100A5000232425003D3D3D3D3D3D3D3D3D3D3E008A
:100A6000E00000000201000210000000010100008F
:100A7000000004010007020001000002180000004D
:100A8000070000000000000000000000000000005F
:100A90000000000000F800000000000000333000FB
:100AA000000000100C06100C060000000000000002
:100AB000000040C07840C0784000043F04043F0478
:100AC0000400007088FC08300000001820FF211E80
:100AD0000000F008F000E018000000211C031E21B7
:100AE0001E0000F00888700000001E212324192732
:100AF000211010160E000000000000000000000091
:100B00000000000000E018040200000000071820A8
:100B1000400000020418E000000000402018070018
:100B20000000404080F0804040000202010F0102BE
:100B30000200000000F0000000000101011F01019F
:100B40000100000000000000000080B07000000004
:100B50000000000000000000000000010101010190
:100B60000101000000000000000000303000000023
:100B700000000000000080601804006018060100FA
:100B8000000000E010080810E000000F1020201006
:100B90000F00001010F8000000000020203F20206F
:100BA0000000007008080888700000302824222106
:100BB00030000030088888483000001820202011BC
:100BC0000E000000C02010F8000000070424243F9D
:100BD000240000F808888808080000192120201146
:100BE0000E0000E0108888180000000F112020116E
:100BF0000E0000380808C83808000000003F000058
:100C000000000070880808887000001C2221212242
:100C10001C0000E010080810E00000003122221142
:100C20000F00000000C0C0000000000000303000D5
:100C30000000000000800000000000008060000054
:100C4000000000008040201008000001020408108D
:100C5000200040404040404040000404040404049C
:100C6000040000081020408000000020100804024A
:100C70000100007048080808F0000000003036014C
:100C80000000C030C828E810E0000718272423140B
:100C90000B000000C038E0000000203C23020227C7
:100CA000382008F8888888700000203F2020201114
:100CB0000E00C0300808080838000718202020104F
:100CC000080008F808080810E000203F2020201045
:100CD0000F0008F88888E8081000203F2020232013
:100CE000180008F88888E8081000203F200003005A
:100CF0000000C03008080838000007182020221E15
:100D0000020008F808000008F808203F210101212E
:100D10003F20000808F8080800000020203F20209D
:100D2000000000000808F8080800C08080807F00EC
:100D3000000008F888C028180800203F2001263845
:100D4000200008F8080000000000203F202020209C
:100D5000300008F8F800F8F80800203F003F003F96
:100D6000200008F830C00008F808203F20000718CD
:100D70003F00E01008080810E0000F1020202010AD
:100D80000F0008F808080808F000203F21010101C1
:100D90000000E01008080810E0000F182424385064
:100DA0004F0008F8888888887000203F2000030CD6
:100DB00030200070880808083800003820212122DF
:100DC0001C00180808F8080818000000203F200040
:100DD000000008F808000008F808001F2020202064
:100DE0001F000878880000C83808000007380E0186
:100DF0000000F80800F80008F800033C0700073C72
:100E00000300081868808068180820302C03032C21
:100E100030200838C800C83808000000203F2000F3
:100E2000000010080808C8380800203826212020B3
:100E30001800000000FE020202000000007F404097
:100E40004000000C30C00000000000000001063827
:100E5000C00000020202FE000000004040407F008F
:100E60000000000004020202040000000000000074
:100E70000000000000000000000080808080808072
:100E8000808000020204000000000000000000005A
:100E900000000000808080800000001924222222AF
:100EA0003F2008F8008080000000003F1120201142
:100EB0000E000000008080800000000E1120202025
:100EC0001100000000808088F800000E1120201022
:100ED0003F200000808080800000001F222222220C
:100EE0001300008080F0888888180020203F202090
:100EF00000000000808080808000006B94949493B8
:100F0000600008F8008080800000203F2100002061
:100F10003F2000809898000000000020203F202003
:100F20000000000000809898000000C08080807F52
:100F3000000008F8000080808000203F24022D304F
:100F40002000000808F8000000000020203F2020BA
:100F500000008080808080808000203F20003F2033
:100F6000003F8080008080800000203F2100002022
:100F70003F200000808080800000001F2020202073
:100F80001F00808000808000000080FFA1202011D1
:100F90000E000000008080808000000E112020A044
:100FA000FF80808080008080800020203F21200002
:100FB00001000000808080808000003324242424ED
:100FC0001900008080E0808000000000001F2020C9
:100FD00000008080000000808000001F2020201082
:100FE0003F20808080000080808000010E30080655
:100FF000010080800080008080800F300C030C3066
:101000000F0000808000808080000020312E0E3193
:101010002000808080000080808080818E70180693
:10102000010000808080808080000021302C2221FF
:10103000300000000000807C020200000000003F41
:10104000404000000000FF00000000000000FF0022
:1010500000000002027C800000000040403F0000D1
:10106000000000060101020204040000000000006C
:101070000000000094100008000000202000000084
:101080005C060008B41000082000002000040000E6
:101090006C060008006CDC0200000000000000008C
:1010A0000102030406070809000000000000000018
:0410B000000000003C
:04000005080000B53A
:00000001FF
