:020000040800F2
:1000000000040020CD0000084B0100084901000851
:1000100000000000000000000000000000000000E0
:100020000000000000000000000000004F01000878
:1000300000000000000000004D010008E901000878
:10004000FD00000800000000FD000008FD000008A1
:10005000FD000008FD000008FD000008FD0000088C
:1000600000000000FD000008FD000008FD00000881
:10007000FD000008FD000008FD0000080000000071
:10008000FD0000080000000000000000FD00000866
:10009000FD000008FD000008FD000008FD0000084C
:1000A000FD000008FD000008FD000008FD0000083C
:1000B000FD0000080448854600F034F80048004779
:1000C0006B020008C046C046000400200C4880F3C4
:1000D00008880C480168090E0B4A914205D10B486B
:1000E0000B4901600B480C4901600C4880470C48E3
:1000F0000047FEE7FEE7FEE7FEE7FEE7FEE700005B
:1001000000040020040000001F000000181002403E
:10011000010000000000014000000000ED010008A7
:10012000B5000008064C0125064E05E0E36807CC43
:100130002B430C3C98471034B442F7D3FFF7BEFF73
:100140006C0200087C020008FEE7704770477047A9
:100150001CB50021224801910091026801231B0473
:100160001A4302605B000522120304681C400094DD
:10017000019C641C0194009C002C02D1019C9442BF
:10018000F3D10268920328D501210091154A11216B
:100190001160416841604168416041687F22D2033B
:1001A000914341604168112212041143416001688A
:1001B000012212061143016001688901FCD54168E2
:1001C0008908890041604168022211434160416809
:1001D0000907890F0229FAD11CBD00911CBD00003E
:1001E00000100240002002407047000010B5144883
:1001F00001680122114301604168124A11404160C7
:100200000168114A11400160016801229204914382
:10021000016041683F22120491434160C16A0909AB
:100220000901C162016BFF22543291430163416BAA
:1002300049084900416300218160FFF789FF10BD33
:10024000001002400CB8FF08FFFFF6FE02E008C8ED
:10025000121F08C1002AFAD170477047002001E040
:1002600001C1121F002AFBD17047FEE77C02000883
:0C02700000000020000400005C020008F8
:04000005080000B53A
:00000001FF
