:020000040800F2
:1000000018040020CD000008C5020008C302000843
:1000100000000000000000000000000000000000E0
:100020000000000000000000000000006503000860
:10003000000000000000000019030008710400081F
:10004000FD00000800000000FD000008FD000008A1
:10005000FD00000875010008FD000008FD00000813
:1000600000000000FD000008FD000008FD00000881
:10007000FD000008FD000008FD0000080000000071
:10008000FD0000080000000000000000FD00000866
:10009000FD000008FD000008FD000008FD0000084C
:1000A000FD000008FD000008FD000008FD0000083C
:1000B000FD0000080448854600F04AF80048004763
:1000C000F9050008C046C046180400200C4880F31B
:1000D00008880C480168090E0B4A914205D10B486B
:1000E0000B4901600B480C4901600C4880470C48E3
:1000F0000047FEE7FEE7FEE7FEE7FEE7FEE700005B
:1001000018040020040000001F0000001810024026
:10011000010000000000014000000000750400081C
:10012000B500000830B50B4601460020202201240E
:1001300009E00D46D5409D4205D31D469540491B1B
:100140002546954040191546521E002DF1DC30BD64
:10015000064C0125064E05E0E36807CC2B430C3C1A
:1001600098471034B442F7D3FFF7A8FF0C060008F5
:100170002C06000810B5012000F020F800280FD050
:10018000094C206800280BD0084800F00BFA092021
:100190000121C00600F08AF8002801D120688047BC
:1001A000012000F005F810BD140000201027000009
:1001B000014948617047000000040140034A0146BC
:1001C000526900200A4200D001207047000401401B
:1001D00010B5837918490268002B26D00B68934329
:1001E0000B604A6803689A434A60027952181368A0
:1001F0000468234313608A6803689A438A60CA6864
:1002000003689A43CA604279102A05D051180A68D7
:10021000006802430A6010BD8A6803681A438A6056
:10022000CA6800680243CA6010BD007940180168BE
:100230009143016010BD000000040140F0B50022B0
:10024000012423460D6893401D409D422AD10D791B
:10025000012D01D0022D12D1876855000326AE4032
:10026000B74387604E79AE4085682E4386608588A7
:100270009D43858085888B7993401D4385800668E2
:1002800055000323AB409E4306600E790768AE40DD
:100290003E430660C6689E43C660CB79AB40C568E6
:1002A0002B43C360521C102ACBD3F0BD0246128AE6
:1002B00000200A4200D0012070470185704781610B
:1002C0007047FEE77047000030B58378012102785F
:1002D000002B15D094080E4BA400E4182368920755
:1002E000D50EFF22AA40934342789207120EAA40ED
:1002F0001A4322600078C006C00E8140054804E021
:10030000D006C00E814003488030016030BD00003F
:1003100000E400E000E100E070470000044A00292A
:10032000516901D0014300E08143516170470000F1
:100330000010024010B5054A53687B24E403A34330
:100340005360536808430343536010BD00100240DC
:10035000034A5168890889000143516070470000D1
:1003600000100240704700008A07130F10B50F22DB
:100370009A408C080549A40061188C6894438C60ED
:100380008A68984002438A6010BD00000000014066
:100390007CB500202E4C01900090216801221204AF
:1003A0001143216052000521090323681340009383
:1003B000019B5B1C0193009B002B02D1019B8B4294
:1003C000F3D1216801258B031121224A2D06002B30
:1003D00023DA0120009011606068606060686060EE
:1003E00060687F21C903884360606068D10008436A
:1003F000606020682843206020688001FCD5606828
:100400008008800060606068022108436060606866
:100410000007800F0228FAD17CBD0090116060684F
:100420006060606860600521C9040020FFF782FFFA
:1004300020682843206020688001FCD50220FFF757
:1004400087FF60680007800F0228FAD17CBD00009A
:1004500000100240002002400422044904280869D8
:1004600002D09043086170471043FBE700E000E0D2
:100470007047000010B51448016801221143016063
:100480004168124A114041600168114A11400160FF
:100490000168012292049143016041683F221204E5
:1004A00091434160C16A09090901C162016BFF22E0
:1004B000543291430163416B490849004163002173
:1004C0008160FFF765FF10BD001002400CB8FF0807
:1004D000FFFFF6FE02E008C8121F08C1002AFAD189
:1004E00070477047002001E001C1121F002AFBD1B4
:1004F000704710B500F042F810BD000030B5144947
:1005000085B008600024684601250471C5714471F6
:10051000294668040095FFF701FF09206946C006D7
:10052000FFF78CFE684602950473102141738573B2
:10053000052101744474857402A8FFF749FE04A8DC
:10054000FFF7C2FE00210846FFF70EFF05B030BDE1
:10055000140000201CB50121684601710021417181
:100560000220009001214004FFF7D8FE69460248AE
:10057000FFF764FE1CBD00000004004810B5084CE5
:1005800002212046FFF792FE002804D002212046D7
:10059000FFF793FE10BD02212046FFF790FE10BD2D
:1005A0000004004838B504460E480D490068FFF7BE
:1005B000B9FD01460C486143416100218161026936
:1005C00001231A43026102690092D20702D0009A05
:1005D000D203F8D50269520852000261816138BD28
:1005E00000127A000000002000E000E010B50420B6
:1005F000C043FFF731FF10BDFFF7F8FFFFF7AAFF79
:100600000148FFF77BFFFEE7F30400082C06000813
:100610000000002018000000D40400084406000870
:100620001800002000040000E4040008006CDC0254
:100630000000000000000000010203040607080992
:0406400000000000B6
:04000005080000B53A
:00000001FF
